{
  "_format": "hh-sol-artifact-1",
  "contractName": "GalleryMinter",
  "sourceName": "contracts/GalleryMinter.sol",
  "abi": [
    {
      "inputs": [
        {
          "internalType": "address",
          "name": "initialOwner",
          "type": "address"
        }
      ],
      "stateMutability": "nonpayable",
      "type": "constructor"
    },
    {
      "inputs": [
        {
          "internalType": "address",
          "name": "sender",
          "type": "address"
        },
        {
          "internalType": "uint256",
          "name": "balance",
          "type": "uint256"
        },
        {
          "internalType": "uint256",
          "name": "needed",
          "type": "uint256"
        },
        {
          "internalType": "uint256",
          "name": "tokenId",
          "type": "uint256"
        }
      ],
      "name": "ERC1155InsufficientBalance",
      "type": "error"
    },
    {
      "inputs": [
        {
          "internalType": "address",
          "name": "approver",
          "type": "address"
        }
      ],
      "name": "ERC1155InvalidApprover",
      "type": "error"
    },
    {
      "inputs": [
        {
          "internalType": "uint256",
          "name": "idsLength",
          "type": "uint256"
        },
        {
          "internalType": "uint256",
          "name": "valuesLength",
          "type": "uint256"
        }
      ],
      "name": "ERC1155InvalidArrayLength",
      "type": "error"
    },
    {
      "inputs": [
        {
          "internalType": "address",
          "name": "operator",
          "type": "address"
        }
      ],
      "name": "ERC1155InvalidOperator",
      "type": "error"
    },
    {
      "inputs": [
        {
          "internalType": "address",
          "name": "receiver",
          "type": "address"
        }
      ],
      "name": "ERC1155InvalidReceiver",
      "type": "error"
    },
    {
      "inputs": [
        {
          "internalType": "address",
          "name": "sender",
          "type": "address"
        }
      ],
      "name": "ERC1155InvalidSender",
      "type": "error"
    },
    {
      "inputs": [
        {
          "internalType": "address",
          "name": "operator",
          "type": "address"
        },
        {
          "internalType": "address",
          "name": "owner",
          "type": "address"
        }
      ],
      "name": "ERC1155MissingApprovalForAll",
      "type": "error"
    },
    {
      "inputs": [],
      "name": "GalleryAlreadySet",
      "type": "error"
    },
    {
      "inputs": [],
      "name": "GalleryNotSet",
      "type": "error"
    },
    {
      "inputs": [],
      "name": "ImageIndexOutOfBounds",
      "type": "error"
    },
    {
      "inputs": [
        {
          "internalType": "address",
          "name": "owner",
          "type": "address"
        }
      ],
      "name": "OwnableInvalidOwner",
      "type": "error"
    },
    {
      "inputs": [
        {
          "internalType": "address",
          "name": "account",
          "type": "address"
        }
      ],
      "name": "OwnableUnauthorizedAccount",
      "type": "error"
    },
    {
      "anonymous": false,
      "inputs": [
        {
          "indexed": true,
          "internalType": "address",
          "name": "account",
          "type": "address"
        },
        {
          "indexed": true,
          "internalType": "address",
          "name": "operator",
          "type": "address"
        },
        {
          "indexed": false,
          "internalType": "bool",
          "name": "approved",
          "type": "bool"
        }
      ],
      "name": "ApprovalForAll",
      "type": "event"
    },
    {
      "anonymous": false,
      "inputs": [
        {
          "indexed": true,
          "internalType": "address",
          "name": "previousOwner",
          "type": "address"
        },
        {
          "indexed": true,
          "internalType": "address",
          "name": "newOwner",
          "type": "address"
        }
      ],
      "name": "OwnershipTransferred",
      "type": "event"
    },
    {
      "anonymous": false,
      "inputs": [
        {
          "indexed": true,
          "internalType": "address",
          "name": "operator",
          "type": "address"
        },
        {
          "indexed": true,
          "internalType": "address",
          "name": "from",
          "type": "address"
        },
        {
          "indexed": true,
          "internalType": "address",
          "name": "to",
          "type": "address"
        },
        {
          "indexed": false,
          "internalType": "uint256[]",
          "name": "ids",
          "type": "uint256[]"
        },
        {
          "indexed": false,
          "internalType": "uint256[]",
          "name": "values",
          "type": "uint256[]"
        }
      ],
      "name": "TransferBatch",
      "type": "event"
    },
    {
      "anonymous": false,
      "inputs": [
        {
          "indexed": true,
          "internalType": "address",
          "name": "operator",
          "type": "address"
        },
        {
          "indexed": true,
          "internalType": "address",
          "name": "from",
          "type": "address"
        },
        {
          "indexed": true,
          "internalType": "address",
          "name": "to",
          "type": "address"
        },
        {
          "indexed": false,
          "internalType": "uint256",
          "name": "id",
          "type": "uint256"
        },
        {
          "indexed": false,
          "internalType": "uint256",
          "name": "value",
          "type": "uint256"
        }
      ],
      "name": "TransferSingle",
      "type": "event"
    },
    {
      "anonymous": false,
      "inputs": [
        {
          "indexed": false,
          "internalType": "string",
          "name": "value",
          "type": "string"
        },
        {
          "indexed": true,
          "internalType": "uint256",
          "name": "id",
          "type": "uint256"
        }
      ],
      "name": "URI",
      "type": "event"
    },
    {
      "inputs": [
        {
          "internalType": "string",
          "name": "description",
          "type": "string"
        },
        {
          "internalType": "string",
          "name": "base64EncodedImage",
          "type": "string"
        }
      ],
      "name": "addImage",
      "outputs": [],
      "stateMutability": "nonpayable",
      "type": "function"
    },
    {
      "inputs": [
        {
          "internalType": "address",
          "name": "account",
          "type": "address"
        },
        {
          "internalType": "uint256",
          "name": "id",
          "type": "uint256"
        }
      ],
      "name": "balanceOf",
      "outputs": [
        {
          "internalType": "uint256",
          "name": "",
          "type": "uint256"
        }
      ],
      "stateMutability": "view",
      "type": "function"
    },
    {
      "inputs": [
        {
          "internalType": "address[]",
          "name": "accounts",
          "type": "address[]"
        },
        {
          "internalType": "uint256[]",
          "name": "ids",
          "type": "uint256[]"
        }
      ],
      "name": "balanceOfBatch",
      "outputs": [
        {
          "internalType": "uint256[]",
          "name": "",
          "type": "uint256[]"
        }
      ],
      "stateMutability": "view",
      "type": "function"
    },
    {
      "inputs": [
        {
          "internalType": "uint256",
          "name": "index",
          "type": "uint256"
        }
      ],
      "name": "deleteImage",
      "outputs": [],
      "stateMutability": "nonpayable",
      "type": "function"
    },
    {
      "inputs": [
        {
          "internalType": "uint256",
          "name": "index",
          "type": "uint256"
        }
      ],
      "name": "getImage",
      "outputs": [
        {
          "components": [
            {
              "internalType": "string",
              "name": "description",
              "type": "string"
            },
            {
              "internalType": "string",
              "name": "base64EncodedImage",
              "type": "string"
            }
          ],
          "internalType": "struct IPersonalImageGallery.Image",
          "name": "",
          "type": "tuple"
        }
      ],
      "stateMutability": "view",
      "type": "function"
    },
    {
      "inputs": [],
      "name": "getImageCount",
      "outputs": [
        {
          "internalType": "uint256",
          "name": "",
          "type": "uint256"
        }
      ],
      "stateMutability": "view",
      "type": "function"
    },
    {
      "inputs": [],
      "name": "getImages",
      "outputs": [
        {
          "components": [
            {
              "internalType": "string",
              "name": "description",
              "type": "string"
            },
            {
              "internalType": "string",
              "name": "base64EncodedImage",
              "type": "string"
            }
          ],
          "internalType": "struct IPersonalImageGallery.Image[]",
          "name": "",
          "type": "tuple[]"
        }
      ],
      "stateMutability": "view",
      "type": "function"
    },
    {
      "inputs": [
        {
          "internalType": "address",
          "name": "account",
          "type": "address"
        },
        {
          "internalType": "address",
          "name": "operator",
          "type": "address"
        }
      ],
      "name": "isApprovedForAll",
      "outputs": [
        {
          "internalType": "bool",
          "name": "",
          "type": "bool"
        }
      ],
      "stateMutability": "view",
      "type": "function"
    },
    {
      "inputs": [
        {
          "internalType": "address",
          "name": "to",
          "type": "address"
        },
        {
          "internalType": "uint256",
          "name": "imageIndex",
          "type": "uint256"
        },
        {
          "internalType": "uint256",
          "name": "amount",
          "type": "uint256"
        }
      ],
      "name": "mint",
      "outputs": [],
      "stateMutability": "nonpayable",
      "type": "function"
    },
    {
      "inputs": [],
      "name": "owner",
      "outputs": [
        {
          "internalType": "address",
          "name": "",
          "type": "address"
        }
      ],
      "stateMutability": "view",
      "type": "function"
    },
    {
      "inputs": [],
      "name": "personalImageGallery",
      "outputs": [
        {
          "internalType": "contract IPersonalImageGallery",
          "name": "",
          "type": "address"
        }
      ],
      "stateMutability": "view",
      "type": "function"
    },
    {
      "inputs": [],
      "name": "renounceOwnership",
      "outputs": [],
      "stateMutability": "nonpayable",
      "type": "function"
    },
    {
      "inputs": [
        {
          "internalType": "address",
          "name": "from",
          "type": "address"
        },
        {
          "internalType": "address",
          "name": "to",
          "type": "address"
        },
        {
          "internalType": "uint256[]",
          "name": "ids",
          "type": "uint256[]"
        },
        {
          "internalType": "uint256[]",
          "name": "values",
          "type": "uint256[]"
        },
        {
          "internalType": "bytes",
          "name": "data",
          "type": "bytes"
        }
      ],
      "name": "safeBatchTransferFrom",
      "outputs": [],
      "stateMutability": "nonpayable",
      "type": "function"
    },
    {
      "inputs": [
        {
          "internalType": "address",
          "name": "from",
          "type": "address"
        },
        {
          "internalType": "address",
          "name": "to",
          "type": "address"
        },
        {
          "internalType": "uint256",
          "name": "id",
          "type": "uint256"
        },
        {
          "internalType": "uint256",
          "name": "value",
          "type": "uint256"
        },
        {
          "internalType": "bytes",
          "name": "data",
          "type": "bytes"
        }
      ],
      "name": "safeTransferFrom",
      "outputs": [],
      "stateMutability": "nonpayable",
      "type": "function"
    },
    {
      "inputs": [
        {
          "internalType": "address",
          "name": "operator",
          "type": "address"
        },
        {
          "internalType": "bool",
          "name": "approved",
          "type": "bool"
        }
      ],
      "name": "setApprovalForAll",
      "outputs": [],
      "stateMutability": "nonpayable",
      "type": "function"
    },
    {
      "inputs": [
        {
          "internalType": "address",
          "name": "_gallery",
          "type": "address"
        }
      ],
      "name": "setGallery",
      "outputs": [],
      "stateMutability": "nonpayable",
      "type": "function"
    },
    {
      "inputs": [
        {
          "internalType": "bytes4",
          "name": "interfaceId",
          "type": "bytes4"
        }
      ],
      "name": "supportsInterface",
      "outputs": [
        {
          "internalType": "bool",
          "name": "",
          "type": "bool"
        }
      ],
      "stateMutability": "view",
      "type": "function"
    },
    {
      "inputs": [
        {
          "internalType": "address",
          "name": "newOwner",
          "type": "address"
        }
      ],
      "name": "transferOwnership",
      "outputs": [],
      "stateMutability": "nonpayable",
      "type": "function"
    },
    {
      "inputs": [
        {
          "internalType": "uint256",
          "name": "tokenId",
          "type": "uint256"
        }
      ],
      "name": "uri",
      "outputs": [
        {
          "internalType": "string",
          "name": "",
          "type": "string"
        }
      ],
      "stateMutability": "view",
      "type": "function"
    }
  ],
  "bytecode": "0x608060405234801561001057600080fd5b50604051613c94380380613c9483398181016040528101906100329190610217565b8060405180602001604052806000815250610052816100db60201b60201c565b50600073ffffffffffffffffffffffffffffffffffffffff168173ffffffffffffffffffffffffffffffffffffffff16036100c55760006040517f1e4fbdf70000000000000000000000000000000000000000000000000000000081526004016100bc9190610253565b60405180910390fd5b6100d4816100ee60201b60201c565b5050610590565b80600290816100ea91906104be565b5050565b6000600360009054906101000a900473ffffffffffffffffffffffffffffffffffffffff16905081600360006101000a81548173ffffffffffffffffffffffffffffffffffffffff021916908373ffffffffffffffffffffffffffffffffffffffff1602179055508173ffffffffffffffffffffffffffffffffffffffff168173ffffffffffffffffffffffffffffffffffffffff167f8be0079c531659141344cd1fd0a4f28419497f9722a3daafe3b4186f6b6457e060405160405180910390a35050565b600080fd5b600073ffffffffffffffffffffffffffffffffffffffff82169050919050565b60006101e4826101b9565b9050919050565b6101f4816101d9565b81146101ff57600080fd5b50565b600081519050610211816101eb565b92915050565b60006020828403121561022d5761022c6101b4565b5b600061023b84828501610202565b91505092915050565b61024d816101d9565b82525050565b60006020820190506102686000830184610244565b92915050565b600081519050919050565b7f4e487b7100000000000000000000000000000000000000000000000000000000600052604160045260246000fd5b7f4e487b7100000000000000000000000000000000000000000000000000000000600052602260045260246000fd5b600060028204905060018216806102ef57607f821691505b602082108103610302576103016102a8565b5b50919050565b60008190508160005260206000209050919050565b60006020601f8301049050919050565b600082821b905092915050565b60006008830261036a7fffffffffffffffffffffffffffffffffffffffffffffffffffffffffffffffff8261032d565b610374868361032d565b95508019841693508086168417925050509392505050565b6000819050919050565b6000819050919050565b60006103bb6103b66103b18461038c565b610396565b61038c565b9050919050565b6000819050919050565b6103d5836103a0565b6103e96103e1826103c2565b84845461033a565b825550505050565b600090565b6103fe6103f1565b6104098184846103cc565b505050565b5b8181101561042d576104226000826103f6565b60018101905061040f565b5050565b601f8211156104725761044381610308565b61044c8461031d565b8101602085101561045b578190505b61046f6104678561031d565b83018261040e565b50505b505050565b600082821c905092915050565b600061049560001984600802610477565b1980831691505092915050565b60006104ae8383610484565b9150826002028217905092915050565b6104c78261026e565b67ffffffffffffffff8111156104e0576104df610279565b5b6104ea82546102d7565b6104f5828285610431565b600060209050601f8311600181146105285760008415610516578287015190505b61052085826104a2565b865550610588565b601f19841661053686610308565b60005b8281101561055e57848901518255600182019150602085019450602081019050610539565b8683101561057b5784890151610577601f891682610484565b8355505b6001600288020188555050505b505050505050565b6136f58061059f6000396000f3fe608060405234801561001057600080fd5b50600436106101205760003560e01c8063715018a6116100ad578063e985e9c511610071578063e985e9c514610303578063f242432a14610333578063f2fde38b1461034f578063f97c44a91461036b578063ff2729961461038957610120565b8063715018a614610287578063861d7daf146102915780638da5cb5b146102ad578063a22cb465146102cb578063a6eecd18146102e757610120565b806311498334116100f457806311498334146101d1578063156e29f6146101ef5780632607aafa1461020b5780632eb2c2d61461023b5780634e1273f41461025757610120565b8062fdd58e1461012557806301ffc9a71461015557806308c687b9146101855780630e89341c146101a1575b600080fd5b61013f600480360381019061013a9190612287565b6103a7565b60405161014c91906122d6565b60405180910390f35b61016f600480360381019061016a9190612349565b610401565b60405161017c9190612391565b60405180910390f35b61019f600480360381019061019a91906123ac565b6104e3565b005b6101bb60048036038101906101b691906123d9565b6105b7565b6040516101c89190612496565b60405180910390f35b6101d9610763565b6040516101e69190612608565b60405180910390f35b6102096004803603810190610204919061262a565b610888565b005b610225600480360381019061022091906123d9565b6109f9565b60405161023291906126c1565b60405180910390f35b610255600480360381019061025091906128e0565b610b31565b005b610271600480360381019061026c9190612a72565b610bd9565b60405161027e9190612ba8565b60405180910390f35b61028f610ce2565b005b6102ab60048036038101906102a691906123d9565b610cf6565b005b6102b5610e16565b6040516102c29190612bd9565b60405180910390f35b6102e560048036038101906102e09190612c20565b610e40565b005b61030160048036038101906102fc9190612d01565b610e56565b005b61031d60048036038101906103189190612d79565b610f79565b60405161032a9190612391565b60405180910390f35b61034d60048036038101906103489190612db9565b61100d565b005b610369600480360381019061036491906123ac565b6110b5565b005b61037361113b565b60405161038091906122d6565b60405180910390f35b61039161125a565b60405161039e9190612eaf565b60405180910390f35b600080600083815260200190815260200160002060008473ffffffffffffffffffffffffffffffffffffffff1673ffffffffffffffffffffffffffffffffffffffff16815260200190815260200160002054905092915050565b60007fd9b67a26000000000000000000000000000000000000000000000000000000007bffffffffffffffffffffffffffffffffffffffffffffffffffffffff1916827bffffffffffffffffffffffffffffffffffffffffffffffffffffffff191614806104cc57507f0e89341c000000000000000000000000000000000000000000000000000000007bffffffffffffffffffffffffffffffffffffffffffffffffffffffff1916827bffffffffffffffffffffffffffffffffffffffffffffffffffffffff1916145b806104dc57506104db82611280565b5b9050919050565b6104eb6112ea565b600073ffffffffffffffffffffffffffffffffffffffff16600460009054906101000a900473ffffffffffffffffffffffffffffffffffffffff1673ffffffffffffffffffffffffffffffffffffffff1614610573576040517fec77fff600000000000000000000000000000000000000000000000000000000815260040160405180910390fd5b80600460006101000a81548173ffffffffffffffffffffffffffffffffffffffff021916908373ffffffffffffffffffffffffffffffffffffffff16021790555050565b6060600460009054906101000a900473ffffffffffffffffffffffffffffffffffffffff1673ffffffffffffffffffffffffffffffffffffffff1663f97c44a96040518163ffffffff1660e01b8152600401602060405180830381865afa158015610626573d6000803e3d6000fd5b505050506040513d601f19601f8201168201806040525081019061064a9190612edf565b8210610682576040517f472a52c200000000000000000000000000000000000000000000000000000000815260040160405180910390fd5b6000600460009054906101000a900473ffffffffffffffffffffffffffffffffffffffff1673ffffffffffffffffffffffffffffffffffffffff16632607aafa846040518263ffffffff1660e01b81526004016106df91906122d6565b600060405180830381865afa1580156106fc573d6000803e3d6000fd5b505050506040513d6000823e3d601f19601f82011682018060405250810190610725919061300e565b905061073083611371565b8160000151826020015160405160200161074c9392919061312b565b604051602081830303815290604052915050919050565b6060600073ffffffffffffffffffffffffffffffffffffffff16600460009054906101000a900473ffffffffffffffffffffffffffffffffffffffff1673ffffffffffffffffffffffffffffffffffffffff16036107ed576040517f61d2c1e900000000000000000000000000000000000000000000000000000000815260040160405180910390fd5b600460009054906101000a900473ffffffffffffffffffffffffffffffffffffffff1673ffffffffffffffffffffffffffffffffffffffff1663114983346040518163ffffffff1660e01b8152600401600060405180830381865afa15801561085a573d6000803e3d6000fd5b505050506040513d6000823e3d601f19601f820116820180604052508101906108839190613279565b905090565b600073ffffffffffffffffffffffffffffffffffffffff16600460009054906101000a900473ffffffffffffffffffffffffffffffffffffffff1673ffffffffffffffffffffffffffffffffffffffff1603610910576040517f61d2c1e900000000000000000000000000000000000000000000000000000000815260040160405180910390fd5b600460009054906101000a900473ffffffffffffffffffffffffffffffffffffffff1673ffffffffffffffffffffffffffffffffffffffff1663f97c44a96040518163ffffffff1660e01b8152600401602060405180830381865afa15801561097d573d6000803e3d6000fd5b505050506040513d601f19601f820116820180604052508101906109a19190612edf565b82106109d9576040517f472a52c200000000000000000000000000000000000000000000000000000000815260040160405180910390fd5b6109f4838383604051806020016040528060008152506114d1565b505050565b610a016121c5565b600073ffffffffffffffffffffffffffffffffffffffff16600460009054906101000a900473ffffffffffffffffffffffffffffffffffffffff1673ffffffffffffffffffffffffffffffffffffffff1603610a89576040517f61d2c1e900000000000000000000000000000000000000000000000000000000815260040160405180910390fd5b600460009054906101000a900473ffffffffffffffffffffffffffffffffffffffff1673ffffffffffffffffffffffffffffffffffffffff16632607aafa836040518263ffffffff1660e01b8152600401610ae491906122d6565b600060405180830381865afa158015610b01573d6000803e3d6000fd5b505050506040513d6000823e3d601f19601f82011682018060405250810190610b2a919061300e565b9050919050565b6000610b3b61156a565b90508073ffffffffffffffffffffffffffffffffffffffff168673ffffffffffffffffffffffffffffffffffffffff1614158015610b805750610b7e8682610f79565b155b15610bc45780866040517fe237d922000000000000000000000000000000000000000000000000000000008152600401610bbb9291906132c2565b60405180910390fd5b610bd18686868686611572565b505050505050565b60608151835114610c2557815183516040517f5b059991000000000000000000000000000000000000000000000000000000008152600401610c1c9291906132eb565b60405180910390fd5b6000835167ffffffffffffffff811115610c4257610c416126e8565b5b604051908082528060200260200182016040528015610c705781602001602082028036833780820191505090505b50905060005b8451811015610cd757610cad610c95828761166a90919063ffffffff16565b610ca8838761167e90919063ffffffff16565b6103a7565b828281518110610cc057610cbf613314565b5b602002602001018181525050806001019050610c76565b508091505092915050565b610cea6112ea565b610cf46000611692565b565b610cfe6112ea565b600073ffffffffffffffffffffffffffffffffffffffff16600460009054906101000a900473ffffffffffffffffffffffffffffffffffffffff1673ffffffffffffffffffffffffffffffffffffffff1603610d86576040517f61d2c1e900000000000000000000000000000000000000000000000000000000815260040160405180910390fd5b600460009054906101000a900473ffffffffffffffffffffffffffffffffffffffff1673ffffffffffffffffffffffffffffffffffffffff1663861d7daf826040518263ffffffff1660e01b8152600401610de191906122d6565b600060405180830381600087803b158015610dfb57600080fd5b505af1158015610e0f573d6000803e3d6000fd5b5050505050565b6000600360009054906101000a900473ffffffffffffffffffffffffffffffffffffffff16905090565b610e52610e4b61156a565b8383611758565b5050565b610e5e6112ea565b600073ffffffffffffffffffffffffffffffffffffffff16600460009054906101000a900473ffffffffffffffffffffffffffffffffffffffff1673ffffffffffffffffffffffffffffffffffffffff1603610ee6576040517f61d2c1e900000000000000000000000000000000000000000000000000000000815260040160405180910390fd5b600460009054906101000a900473ffffffffffffffffffffffffffffffffffffffff1673ffffffffffffffffffffffffffffffffffffffff1663a6eecd1883836040518363ffffffff1660e01b8152600401610f43929190613343565b600060405180830381600087803b158015610f5d57600080fd5b505af1158015610f71573d6000803e3d6000fd5b505050505050565b6000600160008473ffffffffffffffffffffffffffffffffffffffff1673ffffffffffffffffffffffffffffffffffffffff16815260200190815260200160002060008373ffffffffffffffffffffffffffffffffffffffff1673ffffffffffffffffffffffffffffffffffffffff16815260200190815260200160002060009054906101000a900460ff16905092915050565b600061101761156a565b90508073ffffffffffffffffffffffffffffffffffffffff168673ffffffffffffffffffffffffffffffffffffffff161415801561105c575061105a8682610f79565b155b156110a05780866040517fe237d9220000000000000000000000000000000000000000000000000000000081526004016110979291906132c2565b60405180910390fd5b6110ad86868686866118c8565b505050505050565b6110bd6112ea565b600073ffffffffffffffffffffffffffffffffffffffff168173ffffffffffffffffffffffffffffffffffffffff160361112f5760006040517f1e4fbdf70000000000000000000000000000000000000000000000000000000081526004016111269190612bd9565b60405180910390fd5b61113881611692565b50565b60008073ffffffffffffffffffffffffffffffffffffffff16600460009054906101000a900473ffffffffffffffffffffffffffffffffffffffff1673ffffffffffffffffffffffffffffffffffffffff16036111c4576040517f61d2c1e900000000000000000000000000000000000000000000000000000000815260040160405180910390fd5b600460009054906101000a900473ffffffffffffffffffffffffffffffffffffffff1673ffffffffffffffffffffffffffffffffffffffff1663f97c44a96040518163ffffffff1660e01b8152600401602060405180830381865afa158015611231573d6000803e3d6000fd5b505050506040513d601f19601f820116820180604052508101906112559190612edf565b905090565b600460009054906101000a900473ffffffffffffffffffffffffffffffffffffffff1681565b60007f01ffc9a7000000000000000000000000000000000000000000000000000000007bffffffffffffffffffffffffffffffffffffffffffffffffffffffff1916827bffffffffffffffffffffffffffffffffffffffffffffffffffffffff1916149050919050565b6112f261156a565b73ffffffffffffffffffffffffffffffffffffffff16611310610e16565b73ffffffffffffffffffffffffffffffffffffffff161461136f5761133361156a565b6040517f118cdaa70000000000000000000000000000000000000000000000000000000081526004016113669190612bd9565b60405180910390fd5b565b6060600082036113b8576040518060400160405280600181526020017f300000000000000000000000000000000000000000000000000000000000000081525090506114cc565b600082905060005b600082146113ea5780806113d3906133a9565b915050600a826113e39190613420565b91506113c0565b60008167ffffffffffffffff811115611406576114056126e8565b5b6040519080825280601f01601f1916602001820160405280156114385781602001600182028036833780820191505090505b5090505b600085146114c5576001826114519190613451565b9150600a856114609190613485565b603061146c91906134b6565b60f81b81838151811061148257611481613314565b5b60200101907effffffffffffffffffffffffffffffffffffffffffffffffffffffffffffff1916908160001a905350600a856114be9190613420565b945061143c565b8093505050505b919050565b600073ffffffffffffffffffffffffffffffffffffffff168473ffffffffffffffffffffffffffffffffffffffff16036115435760006040517f57f447ce00000000000000000000000000000000000000000000000000000000815260040161153a9190612bd9565b60405180910390fd5b60008061155085856119d3565b91509150611562600087848487611a03565b505050505050565b600033905090565b600073ffffffffffffffffffffffffffffffffffffffff168473ffffffffffffffffffffffffffffffffffffffff16036115e45760006040517f57f447ce0000000000000000000000000000000000000000000000000000000081526004016115db9190612bd9565b60405180910390fd5b600073ffffffffffffffffffffffffffffffffffffffff168573ffffffffffffffffffffffffffffffffffffffff16036116565760006040517f01a8351400000000000000000000000000000000000000000000000000000000815260040161164d9190612bd9565b60405180910390fd5b6116638585858585611a03565b5050505050565b600060208202602084010151905092915050565b600060208202602084010151905092915050565b6000600360009054906101000a900473ffffffffffffffffffffffffffffffffffffffff16905081600360006101000a81548173ffffffffffffffffffffffffffffffffffffffff021916908373ffffffffffffffffffffffffffffffffffffffff1602179055508173ffffffffffffffffffffffffffffffffffffffff168173ffffffffffffffffffffffffffffffffffffffff167f8be0079c531659141344cd1fd0a4f28419497f9722a3daafe3b4186f6b6457e060405160405180910390a35050565b600073ffffffffffffffffffffffffffffffffffffffff168273ffffffffffffffffffffffffffffffffffffffff16036117ca5760006040517fced3e1000000000000000000000000000000000000000000000000000000000081526004016117c19190612bd9565b60405180910390fd5b80600160008573ffffffffffffffffffffffffffffffffffffffff1673ffffffffffffffffffffffffffffffffffffffff16815260200190815260200160002060008473ffffffffffffffffffffffffffffffffffffffff1673ffffffffffffffffffffffffffffffffffffffff16815260200190815260200160002060006101000a81548160ff0219169083151502179055508173ffffffffffffffffffffffffffffffffffffffff168373ffffffffffffffffffffffffffffffffffffffff167f17307eab39ab6107e8899845ad3d59bd9653f200f220920489ca2b5937696c31836040516118bb9190612391565b60405180910390a3505050565b600073ffffffffffffffffffffffffffffffffffffffff168473ffffffffffffffffffffffffffffffffffffffff160361193a5760006040517f57f447ce0000000000000000000000000000000000000000000000000000000081526004016119319190612bd9565b60405180910390fd5b600073ffffffffffffffffffffffffffffffffffffffff168573ffffffffffffffffffffffffffffffffffffffff16036119ac5760006040517f01a835140000000000000000000000000000000000000000000000000000000081526004016119a39190612bd9565b60405180910390fd5b6000806119b985856119d3565b915091506119ca8787848487611a03565b50505050505050565b60608060405191506001825283602083015260408201905060018152826020820152604081016040529250929050565b611a0f85858585611ab5565b600073ffffffffffffffffffffffffffffffffffffffff168473ffffffffffffffffffffffffffffffffffffffff1614611aae576000611a4d61156a565b90506001845103611a9d576000611a6e60008661167e90919063ffffffff16565b90506000611a8660008661167e90919063ffffffff16565b9050611a96838989858589611e5d565b5050611aac565b611aab818787878787612011565b5b505b5050505050565b8051825114611aff57815181516040517f5b059991000000000000000000000000000000000000000000000000000000008152600401611af69291906132eb565b60405180910390fd5b6000611b0961156a565b905060005b8351811015611d18576000611b2c828661167e90919063ffffffff16565b90506000611b43838661167e90919063ffffffff16565b9050600073ffffffffffffffffffffffffffffffffffffffff168873ffffffffffffffffffffffffffffffffffffffff1614611c7057600080600084815260200190815260200160002060008a73ffffffffffffffffffffffffffffffffffffffff1673ffffffffffffffffffffffffffffffffffffffff16815260200190815260200160002054905081811015611c1857888183856040517f03dee4c5000000000000000000000000000000000000000000000000000000008152600401611c0f94939291906134ea565b60405180910390fd5b81810360008085815260200190815260200160002060008b73ffffffffffffffffffffffffffffffffffffffff1673ffffffffffffffffffffffffffffffffffffffff16815260200190815260200160002081905550505b600073ffffffffffffffffffffffffffffffffffffffff168773ffffffffffffffffffffffffffffffffffffffff1614611d0b578060008084815260200190815260200160002060008973ffffffffffffffffffffffffffffffffffffffff1673ffffffffffffffffffffffffffffffffffffffff1681526020019081526020016000206000828254611d0391906134b6565b925050819055505b5050806001019050611b0e565b506001835103611dd7576000611d3860008561167e90919063ffffffff16565b90506000611d5060008561167e90919063ffffffff16565b90508573ffffffffffffffffffffffffffffffffffffffff168773ffffffffffffffffffffffffffffffffffffffff168473ffffffffffffffffffffffffffffffffffffffff167fc3d58168c5ae7397731d063d5bbf3d657854427343f4c083240f7aacaa2d0f628585604051611dc89291906132eb565b60405180910390a45050611e56565b8373ffffffffffffffffffffffffffffffffffffffff168573ffffffffffffffffffffffffffffffffffffffff168273ffffffffffffffffffffffffffffffffffffffff167f4a39dc06d4c0dbc64b70af90fd698a233a518aa5d07e595d983b8c0526c8f7fb8686604051611e4d92919061352f565b60405180910390a45b5050505050565b60008473ffffffffffffffffffffffffffffffffffffffff163b1115612009578373ffffffffffffffffffffffffffffffffffffffff1663f23a6e6187878686866040518663ffffffff1660e01b8152600401611ebe9594939291906135bb565b6020604051808303816000875af1925050508015611efa57506040513d601f19601f82011682018060405250810190611ef7919061362a565b60015b611f7e573d8060008114611f2a576040519150601f19603f3d011682016040523d82523d6000602084013e611f2f565b606091505b506000815103611f7657846040517f57f447ce000000000000000000000000000000000000000000000000000000008152600401611f6d9190612bd9565b60405180910390fd5b805181602001fd5b63f23a6e6160e01b7bffffffffffffffffffffffffffffffffffffffffffffffffffffffff1916817bffffffffffffffffffffffffffffffffffffffffffffffffffffffff19161461200757846040517f57f447ce000000000000000000000000000000000000000000000000000000008152600401611ffe9190612bd9565b60405180910390fd5b505b505050505050565b60008473ffffffffffffffffffffffffffffffffffffffff163b11156121bd578373ffffffffffffffffffffffffffffffffffffffff1663bc197c8187878686866040518663ffffffff1660e01b8152600401612072959493929190613657565b6020604051808303816000875af19250505080156120ae57506040513d601f19601f820116820180604052508101906120ab919061362a565b60015b612132573d80600081146120de576040519150601f19603f3d011682016040523d82523d6000602084013e6120e3565b606091505b50600081510361212a57846040517f57f447ce0000000000000000000000000000000000000000000000000000000081526004016121219190612bd9565b60405180910390fd5b805181602001fd5b63bc197c8160e01b7bffffffffffffffffffffffffffffffffffffffffffffffffffffffff1916817bffffffffffffffffffffffffffffffffffffffffffffffffffffffff1916146121bb57846040517f57f447ce0000000000000000000000000000000000000000000000000000000081526004016121b29190612bd9565b60405180910390fd5b505b505050505050565b604051806040016040528060608152602001606081525090565b6000604051905090565b600080fd5b600080fd5b600073ffffffffffffffffffffffffffffffffffffffff82169050919050565b600061221e826121f3565b9050919050565b61222e81612213565b811461223957600080fd5b50565b60008135905061224b81612225565b92915050565b6000819050919050565b61226481612251565b811461226f57600080fd5b50565b6000813590506122818161225b565b92915050565b6000806040838503121561229e5761229d6121e9565b5b60006122ac8582860161223c565b92505060206122bd85828601612272565b9150509250929050565b6122d081612251565b82525050565b60006020820190506122eb60008301846122c7565b92915050565b60007fffffffff0000000000000000000000000000000000000000000000000000000082169050919050565b612326816122f1565b811461233157600080fd5b50565b6000813590506123438161231d565b92915050565b60006020828403121561235f5761235e6121e9565b5b600061236d84828501612334565b91505092915050565b60008115159050919050565b61238b81612376565b82525050565b60006020820190506123a66000830184612382565b92915050565b6000602082840312156123c2576123c16121e9565b5b60006123d08482850161223c565b91505092915050565b6000602082840312156123ef576123ee6121e9565b5b60006123fd84828501612272565b91505092915050565b600081519050919050565b600082825260208201905092915050565b60005b83811015612440578082015181840152602081019050612425565b60008484015250505050565b6000601f19601f8301169050919050565b600061246882612406565b6124728185612411565b9350612482818560208601612422565b61248b8161244c565b840191505092915050565b600060208201905081810360008301526124b0818461245d565b905092915050565b600081519050919050565b600082825260208201905092915050565b6000819050602082019050919050565b600082825260208201905092915050565b600061250082612406565b61250a81856124e4565b935061251a818560208601612422565b6125238161244c565b840191505092915050565b6000604083016000830151848203600086015261254b82826124f5565b9150506020830151848203602086015261256582826124f5565b9150508091505092915050565b600061257e838361252e565b905092915050565b6000602082019050919050565b600061259e826124b8565b6125a881856124c3565b9350836020820285016125ba856124d4565b8060005b858110156125f657848403895281516125d78582612572565b94506125e283612586565b925060208a019950506001810190506125be565b50829750879550505050505092915050565b600060208201905081810360008301526126228184612593565b905092915050565b600080600060608486031215612643576126426121e9565b5b60006126518682870161223c565b935050602061266286828701612272565b925050604061267386828701612272565b9150509250925092565b6000604083016000830151848203600086015261269a82826124f5565b915050602083015184820360208601526126b482826124f5565b9150508091505092915050565b600060208201905081810360008301526126db818461267d565b905092915050565b600080fd5b7f4e487b7100000000000000000000000000000000000000000000000000000000600052604160045260246000fd5b6127208261244c565b810181811067ffffffffffffffff8211171561273f5761273e6126e8565b5b80604052505050565b60006127526121df565b905061275e8282612717565b919050565b600067ffffffffffffffff82111561277e5761277d6126e8565b5b602082029050602081019050919050565b600080fd5b60006127a76127a284612763565b612748565b905080838252602082019050602084028301858111156127ca576127c961278f565b5b835b818110156127f357806127df8882612272565b8452602084019350506020810190506127cc565b5050509392505050565b600082601f830112612812576128116126e3565b5b8135612822848260208601612794565b91505092915050565b600080fd5b600067ffffffffffffffff82111561284b5761284a6126e8565b5b6128548261244c565b9050602081019050919050565b82818337600083830152505050565b600061288361287e84612830565b612748565b90508281526020810184848401111561289f5761289e61282b565b5b6128aa848285612861565b509392505050565b600082601f8301126128c7576128c66126e3565b5b81356128d7848260208601612870565b91505092915050565b600080600080600060a086880312156128fc576128fb6121e9565b5b600061290a8882890161223c565b955050602061291b8882890161223c565b945050604086013567ffffffffffffffff81111561293c5761293b6121ee565b5b612948888289016127fd565b935050606086013567ffffffffffffffff811115612969576129686121ee565b5b612975888289016127fd565b925050608086013567ffffffffffffffff811115612996576129956121ee565b5b6129a2888289016128b2565b9150509295509295909350565b600067ffffffffffffffff8211156129ca576129c96126e8565b5b602082029050602081019050919050565b60006129ee6129e9846129af565b612748565b90508083825260208201905060208402830185811115612a1157612a1061278f565b5b835b81811015612a3a5780612a26888261223c565b845260208401935050602081019050612a13565b5050509392505050565b600082601f830112612a5957612a586126e3565b5b8135612a698482602086016129db565b91505092915050565b60008060408385031215612a8957612a886121e9565b5b600083013567ffffffffffffffff811115612aa757612aa66121ee565b5b612ab385828601612a44565b925050602083013567ffffffffffffffff811115612ad457612ad36121ee565b5b612ae0858286016127fd565b9150509250929050565b600081519050919050565b600082825260208201905092915050565b6000819050602082019050919050565b612b1f81612251565b82525050565b6000612b318383612b16565b60208301905092915050565b6000602082019050919050565b6000612b5582612aea565b612b5f8185612af5565b9350612b6a83612b06565b8060005b83811015612b9b578151612b828882612b25565b9750612b8d83612b3d565b925050600181019050612b6e565b5085935050505092915050565b60006020820190508181036000830152612bc28184612b4a565b905092915050565b612bd381612213565b82525050565b6000602082019050612bee6000830184612bca565b92915050565b612bfd81612376565b8114612c0857600080fd5b50565b600081359050612c1a81612bf4565b92915050565b60008060408385031215612c3757612c366121e9565b5b6000612c458582860161223c565b9250506020612c5685828601612c0b565b9150509250929050565b600067ffffffffffffffff821115612c7b57612c7a6126e8565b5b612c848261244c565b9050602081019050919050565b6000612ca4612c9f84612c60565b612748565b905082815260208101848484011115612cc057612cbf61282b565b5b612ccb848285612861565b509392505050565b600082601f830112612ce857612ce76126e3565b5b8135612cf8848260208601612c91565b91505092915050565b60008060408385031215612d1857612d176121e9565b5b600083013567ffffffffffffffff811115612d3657612d356121ee565b5b612d4285828601612cd3565b925050602083013567ffffffffffffffff811115612d6357612d626121ee565b5b612d6f85828601612cd3565b9150509250929050565b60008060408385031215612d9057612d8f6121e9565b5b6000612d9e8582860161223c565b9250506020612daf8582860161223c565b9150509250929050565b600080600080600060a08688031215612dd557612dd46121e9565b5b6000612de38882890161223c565b9550506020612df48882890161223c565b9450506040612e0588828901612272565b9350506060612e1688828901612272565b925050608086013567ffffffffffffffff811115612e3757612e366121ee565b5b612e43888289016128b2565b9150509295509295909350565b6000819050919050565b6000612e75612e70612e6b846121f3565b612e50565b6121f3565b9050919050565b6000612e8782612e5a565b9050919050565b6000612e9982612e7c565b9050919050565b612ea981612e8e565b82525050565b6000602082019050612ec46000830184612ea0565b92915050565b600081519050612ed98161225b565b92915050565b600060208284031215612ef557612ef46121e9565b5b6000612f0384828501612eca565b91505092915050565b600080fd5b600080fd5b6000612f29612f2484612c60565b612748565b905082815260208101848484011115612f4557612f4461282b565b5b612f50848285612422565b509392505050565b600082601f830112612f6d57612f6c6126e3565b5b8151612f7d848260208601612f16565b91505092915050565b600060408284031215612f9c57612f9b612f0c565b5b612fa66040612748565b9050600082015167ffffffffffffffff811115612fc657612fc5612f11565b5b612fd284828501612f58565b600083015250602082015167ffffffffffffffff811115612ff657612ff5612f11565b5b61300284828501612f58565b60208301525092915050565b600060208284031215613024576130236121e9565b5b600082015167ffffffffffffffff811115613042576130416121ee565b5b61304e84828501612f86565b91505092915050565b7f7b226e616d65223a202247616c6c657279204e46542023000000000000000000815250565b600081905092915050565b600061309382612406565b61309d818561307d565b93506130ad818560208601612422565b80840191505092915050565b7f222c20226465736372697074696f6e223a202200000000000000000000000000815250565b7f222c2022696d616765223a202200000000000000000000000000000000000000815250565b7f227d000000000000000000000000000000000000000000000000000000000000815250565b600061313682613057565b6017820191506131468286613088565b9150613151826130b9565b6013820191506131618285613088565b915061316c826130df565b600d8201915061317c8284613088565b915061318782613105565b600282019150819050949350505050565b600067ffffffffffffffff8211156131b3576131b26126e8565b5b602082029050602081019050919050565b60006131d76131d284613198565b612748565b905080838252602082019050602084028301858111156131fa576131f961278f565b5b835b8181101561324157805167ffffffffffffffff81111561321f5761321e6126e3565b5b80860161322c8982612f86565b855260208501945050506020810190506131fc565b5050509392505050565b600082601f8301126132605761325f6126e3565b5b81516132708482602086016131c4565b91505092915050565b60006020828403121561328f5761328e6121e9565b5b600082015167ffffffffffffffff8111156132ad576132ac6121ee565b5b6132b98482850161324b565b91505092915050565b60006040820190506132d76000830185612bca565b6132e46020830184612bca565b9392505050565b600060408201905061330060008301856122c7565b61330d60208301846122c7565b9392505050565b7f4e487b7100000000000000000000000000000000000000000000000000000000600052603260045260246000fd5b6000604082019050818103600083015261335d818561245d565b90508181036020830152613371818461245d565b90509392505050565b7f4e487b7100000000000000000000000000000000000000000000000000000000600052601160045260246000fd5b60006133b482612251565b91507fffffffffffffffffffffffffffffffffffffffffffffffffffffffffffffffff82036133e6576133e561337a565b5b600182019050919050565b7f4e487b7100000000000000000000000000000000000000000000000000000000600052601260045260246000fd5b600061342b82612251565b915061343683612251565b925082613446576134456133f1565b5b828204905092915050565b600061345c82612251565b915061346783612251565b925082820390508181111561347f5761347e61337a565b5b92915050565b600061349082612251565b915061349b83612251565b9250826134ab576134aa6133f1565b5b828206905092915050565b60006134c182612251565b91506134cc83612251565b92508282019050808211156134e4576134e361337a565b5b92915050565b60006080820190506134ff6000830187612bca565b61350c60208301866122c7565b61351960408301856122c7565b61352660608301846122c7565b95945050505050565b600060408201905081810360008301526135498185612b4a565b9050818103602083015261355d8184612b4a565b90509392505050565b600081519050919050565b600082825260208201905092915050565b600061358d82613566565b6135978185613571565b93506135a7818560208601612422565b6135b08161244c565b840191505092915050565b600060a0820190506135d06000830188612bca565b6135dd6020830187612bca565b6135ea60408301866122c7565b6135f760608301856122c7565b81810360808301526136098184613582565b90509695505050505050565b6000815190506136248161231d565b92915050565b6000602082840312156136405761363f6121e9565b5b600061364e84828501613615565b91505092915050565b600060a08201905061366c6000830188612bca565b6136796020830187612bca565b818103604083015261368b8186612b4a565b9050818103606083015261369f8185612b4a565b905081810360808301526136b38184613582565b9050969550505050505056fea2646970667358221220a108fc9ddc6ef22d87b9775f48266b9df429d7590791931ddda8700177ec83b364736f6c634300081c0033",
  "linkReferences": {},
  "deployedLinkReferences": {}
}