{
  "_format": "hh-sol-artifact-1",
  "contractName": "MinterFactory",
  "sourceName": "contracts/MinterFactory.sol",
  "abi": [
    {
      "inputs": [],
      "name": "DeploymentFailed",
      "type": "error"
    },
    {
      "anonymous": false,
      "inputs": [
        {
          "indexed": true,
          "internalType": "address",
          "name": "owner",
          "type": "address"
        },
        {
          "indexed": false,
          "internalType": "address",
          "name": "gallery",
          "type": "address"
        },
        {
          "indexed": false,
          "internalType": "address",
          "name": "minter",
          "type": "address"
        }
      ],
      "name": "GalleryCreated",
      "type": "event"
    },
    {
      "inputs": [
        {
          "internalType": "address",
          "name": "_owner",
          "type": "address"
        }
      ],
      "name": "createGalleryAndMinter",
      "outputs": [
        {
          "internalType": "address",
          "name": "gallery",
          "type": "address"
        },
        {
          "internalType": "address",
          "name": "minter",
          "type": "address"
        }
      ],
      "stateMutability": "nonpayable",
      "type": "function"
    },
    {
      "inputs": [
        {
          "internalType": "address",
          "name": "_owner",
          "type": "address"
        }
      ],
      "name": "getGalleries",
      "outputs": [
        {
          "internalType": "address[]",
          "name": "",
          "type": "address[]"
        }
      ],
      "stateMutability": "view",
      "type": "function"
    }
  ],
  "bytecode": "0x6080604052348015600f57600080fd5b50615ac48061001f6000396000f3fe608060405234801561001057600080fd5b50600436106100365760003560e01c806338c92c941461003b57806389ec4e1f1461006b575b600080fd5b610055600480360381019061005091906104f6565b61009c565b60405161006291906105e1565b60405180910390f35b610085600480360381019061008091906104f6565b610168565b604051610093929190610612565b60405180910390f35b60606000808373ffffffffffffffffffffffffffffffffffffffff1673ffffffffffffffffffffffffffffffffffffffff16815260200190815260200160002080548060200260200160405190810160405280929190818152602001828054801561015c57602002820191906000526020600020905b8160009054906101000a900473ffffffffffffffffffffffffffffffffffffffff1673ffffffffffffffffffffffffffffffffffffffff1681526020019060010190808311610112575b50505050509050919050565b60008060003060405161017a90610479565b610184919061063b565b604051809103906000f0801580156101a0573d6000803e3d6000fd5b509050600073ffffffffffffffffffffffffffffffffffffffff168173ffffffffffffffffffffffffffffffffffffffff1603610209576040517f3011642500000000000000000000000000000000000000000000000000000000815260040160405180910390fd5b60008160405161021890610486565b610222919061063b565b604051809103906000f08015801561023e573d6000803e3d6000fd5b509050600073ffffffffffffffffffffffffffffffffffffffff168173ffffffffffffffffffffffffffffffffffffffff16036102a7576040517f3011642500000000000000000000000000000000000000000000000000000000815260040160405180910390fd5b8173ffffffffffffffffffffffffffffffffffffffff166308c687b9826040518263ffffffff1660e01b81526004016102e0919061063b565b600060405180830381600087803b1580156102fa57600080fd5b505af115801561030e573d6000803e3d6000fd5b505050508173ffffffffffffffffffffffffffffffffffffffff1663f2fde38b866040518263ffffffff1660e01b815260040161034b919061063b565b600060405180830381600087803b15801561036557600080fd5b505af1158015610379573d6000803e3d6000fd5b505050508473ffffffffffffffffffffffffffffffffffffffff167fdf43ff1bcb8bd78350d4bcd72216c59e9e836f60dd79d83ebdd3fddf57b0646a82846040516103c5929190610612565b60405180910390a26000808673ffffffffffffffffffffffffffffffffffffffff1673ffffffffffffffffffffffffffffffffffffffff168152602001908152602001600020829080600181540180825580915050600190039060005260206000200160009091909190916101000a81548173ffffffffffffffffffffffffffffffffffffffff021916908373ffffffffffffffffffffffffffffffffffffffff1602179055508082935093505050915091565b613c948061065783390190565b6117a4806142eb83390190565b600080fd5b600073ffffffffffffffffffffffffffffffffffffffff82169050919050565b60006104c382610498565b9050919050565b6104d3816104b8565b81146104de57600080fd5b50565b6000813590506104f0816104ca565b92915050565b60006020828403121561050c5761050b610493565b5b600061051a848285016104e1565b91505092915050565b600081519050919050565b600082825260208201905092915050565b6000819050602082019050919050565b610558816104b8565b82525050565b600061056a838361054f565b60208301905092915050565b6000602082019050919050565b600061058e82610523565b610598818561052e565b93506105a38361053f565b8060005b838110156105d45781516105bb888261055e565b97506105c683610576565b9250506001810190506105a7565b5085935050505092915050565b600060208201905081810360008301526105fb8184610583565b905092915050565b61060c816104b8565b82525050565b60006040820190506106276000830185610603565b6106346020830184610603565b9392505050565b60006020820190506106506000830184610603565b9291505056fe608060405234801561001057600080fd5b50604051613c94380380613c9483398181016040528101906100329190610217565b8060405180602001604052806000815250610052816100db60201b60201c565b50600073ffffffffffffffffffffffffffffffffffffffff168173ffffffffffffffffffffffffffffffffffffffff16036100c55760006040517f1e4fbdf70000000000000000000000000000000000000000000000000000000081526004016100bc9190610253565b60405180910390fd5b6100d4816100ee60201b60201c565b5050610590565b80600290816100ea91906104be565b5050565b6000600360009054906101000a900473ffffffffffffffffffffffffffffffffffffffff16905081600360006101000a81548173ffffffffffffffffffffffffffffffffffffffff021916908373ffffffffffffffffffffffffffffffffffffffff1602179055508173ffffffffffffffffffffffffffffffffffffffff168173ffffffffffffffffffffffffffffffffffffffff167f8be0079c531659141344cd1fd0a4f28419497f9722a3daafe3b4186f6b6457e060405160405180910390a35050565b600080fd5b600073ffffffffffffffffffffffffffffffffffffffff82169050919050565b60006101e4826101b9565b9050919050565b6101f4816101d9565b81146101ff57600080fd5b50565b600081519050610211816101eb565b92915050565b60006020828403121561022d5761022c6101b4565b5b600061023b84828501610202565b91505092915050565b61024d816101d9565b82525050565b60006020820190506102686000830184610244565b92915050565b600081519050919050565b7f4e487b7100000000000000000000000000000000000000000000000000000000600052604160045260246000fd5b7f4e487b7100000000000000000000000000000000000000000000000000000000600052602260045260246000fd5b600060028204905060018216806102ef57607f821691505b602082108103610302576103016102a8565b5b50919050565b60008190508160005260206000209050919050565b60006020601f8301049050919050565b600082821b905092915050565b60006008830261036a7fffffffffffffffffffffffffffffffffffffffffffffffffffffffffffffffff8261032d565b610374868361032d565b95508019841693508086168417925050509392505050565b6000819050919050565b6000819050919050565b60006103bb6103b66103b18461038c565b610396565b61038c565b9050919050565b6000819050919050565b6103d5836103a0565b6103e96103e1826103c2565b84845461033a565b825550505050565b600090565b6103fe6103f1565b6104098184846103cc565b505050565b5b8181101561042d576104226000826103f6565b60018101905061040f565b5050565b601f8211156104725761044381610308565b61044c8461031d565b8101602085101561045b578190505b61046f6104678561031d565b83018261040e565b50505b505050565b600082821c905092915050565b600061049560001984600802610477565b1980831691505092915050565b60006104ae8383610484565b9150826002028217905092915050565b6104c78261026e565b67ffffffffffffffff8111156104e0576104df610279565b5b6104ea82546102d7565b6104f5828285610431565b600060209050601f8311600181146105285760008415610516578287015190505b61052085826104a2565b865550610588565b601f19841661053686610308565b60005b8281101561055e57848901518255600182019150602085019450602081019050610539565b8683101561057b5784890151610577601f891682610484565b8355505b6001600288020188555050505b505050505050565b6136f58061059f6000396000f3fe608060405234801561001057600080fd5b50600436106101205760003560e01c8063715018a6116100ad578063e985e9c511610071578063e985e9c514610303578063f242432a14610333578063f2fde38b1461034f578063f97c44a91461036b578063ff2729961461038957610120565b8063715018a614610287578063861d7daf146102915780638da5cb5b146102ad578063a22cb465146102cb578063a6eecd18146102e757610120565b806311498334116100f457806311498334146101d1578063156e29f6146101ef5780632607aafa1461020b5780632eb2c2d61461023b5780634e1273f41461025757610120565b8062fdd58e1461012557806301ffc9a71461015557806308c687b9146101855780630e89341c146101a1575b600080fd5b61013f600480360381019061013a9190612287565b6103a7565b60405161014c91906122d6565b60405180910390f35b61016f600480360381019061016a9190612349565b610401565b60405161017c9190612391565b60405180910390f35b61019f600480360381019061019a91906123ac565b6104e3565b005b6101bb60048036038101906101b691906123d9565b6105b7565b6040516101c89190612496565b60405180910390f35b6101d9610763565b6040516101e69190612608565b60405180910390f35b6102096004803603810190610204919061262a565b610888565b005b610225600480360381019061022091906123d9565b6109f9565b60405161023291906126c1565b60405180910390f35b610255600480360381019061025091906128e0565b610b31565b005b610271600480360381019061026c9190612a72565b610bd9565b60405161027e9190612ba8565b60405180910390f35b61028f610ce2565b005b6102ab60048036038101906102a691906123d9565b610cf6565b005b6102b5610e16565b6040516102c29190612bd9565b60405180910390f35b6102e560048036038101906102e09190612c20565b610e40565b005b61030160048036038101906102fc9190612d01565b610e56565b005b61031d60048036038101906103189190612d79565b610f79565b60405161032a9190612391565b60405180910390f35b61034d60048036038101906103489190612db9565b61100d565b005b610369600480360381019061036491906123ac565b6110b5565b005b61037361113b565b60405161038091906122d6565b60405180910390f35b61039161125a565b60405161039e9190612eaf565b60405180910390f35b600080600083815260200190815260200160002060008473ffffffffffffffffffffffffffffffffffffffff1673ffffffffffffffffffffffffffffffffffffffff16815260200190815260200160002054905092915050565b60007fd9b67a26000000000000000000000000000000000000000000000000000000007bffffffffffffffffffffffffffffffffffffffffffffffffffffffff1916827bffffffffffffffffffffffffffffffffffffffffffffffffffffffff191614806104cc57507f0e89341c000000000000000000000000000000000000000000000000000000007bffffffffffffffffffffffffffffffffffffffffffffffffffffffff1916827bffffffffffffffffffffffffffffffffffffffffffffffffffffffff1916145b806104dc57506104db82611280565b5b9050919050565b6104eb6112ea565b600073ffffffffffffffffffffffffffffffffffffffff16600460009054906101000a900473ffffffffffffffffffffffffffffffffffffffff1673ffffffffffffffffffffffffffffffffffffffff1614610573576040517fec77fff600000000000000000000000000000000000000000000000000000000815260040160405180910390fd5b80600460006101000a81548173ffffffffffffffffffffffffffffffffffffffff021916908373ffffffffffffffffffffffffffffffffffffffff16021790555050565b6060600460009054906101000a900473ffffffffffffffffffffffffffffffffffffffff1673ffffffffffffffffffffffffffffffffffffffff1663f97c44a96040518163ffffffff1660e01b8152600401602060405180830381865afa158015610626573d6000803e3d6000fd5b505050506040513d601f19601f8201168201806040525081019061064a9190612edf565b8210610682576040517f472a52c200000000000000000000000000000000000000000000000000000000815260040160405180910390fd5b6000600460009054906101000a900473ffffffffffffffffffffffffffffffffffffffff1673ffffffffffffffffffffffffffffffffffffffff16632607aafa846040518263ffffffff1660e01b81526004016106df91906122d6565b600060405180830381865afa1580156106fc573d6000803e3d6000fd5b505050506040513d6000823e3d601f19601f82011682018060405250810190610725919061300e565b905061073083611371565b8160000151826020015160405160200161074c9392919061312b565b604051602081830303815290604052915050919050565b6060600073ffffffffffffffffffffffffffffffffffffffff16600460009054906101000a900473ffffffffffffffffffffffffffffffffffffffff1673ffffffffffffffffffffffffffffffffffffffff16036107ed576040517f61d2c1e900000000000000000000000000000000000000000000000000000000815260040160405180910390fd5b600460009054906101000a900473ffffffffffffffffffffffffffffffffffffffff1673ffffffffffffffffffffffffffffffffffffffff1663114983346040518163ffffffff1660e01b8152600401600060405180830381865afa15801561085a573d6000803e3d6000fd5b505050506040513d6000823e3d601f19601f820116820180604052508101906108839190613279565b905090565b600073ffffffffffffffffffffffffffffffffffffffff16600460009054906101000a900473ffffffffffffffffffffffffffffffffffffffff1673ffffffffffffffffffffffffffffffffffffffff1603610910576040517f61d2c1e900000000000000000000000000000000000000000000000000000000815260040160405180910390fd5b600460009054906101000a900473ffffffffffffffffffffffffffffffffffffffff1673ffffffffffffffffffffffffffffffffffffffff1663f97c44a96040518163ffffffff1660e01b8152600401602060405180830381865afa15801561097d573d6000803e3d6000fd5b505050506040513d601f19601f820116820180604052508101906109a19190612edf565b82106109d9576040517f472a52c200000000000000000000000000000000000000000000000000000000815260040160405180910390fd5b6109f4838383604051806020016040528060008152506114d1565b505050565b610a016121c5565b600073ffffffffffffffffffffffffffffffffffffffff16600460009054906101000a900473ffffffffffffffffffffffffffffffffffffffff1673ffffffffffffffffffffffffffffffffffffffff1603610a89576040517f61d2c1e900000000000000000000000000000000000000000000000000000000815260040160405180910390fd5b600460009054906101000a900473ffffffffffffffffffffffffffffffffffffffff1673ffffffffffffffffffffffffffffffffffffffff16632607aafa836040518263ffffffff1660e01b8152600401610ae491906122d6565b600060405180830381865afa158015610b01573d6000803e3d6000fd5b505050506040513d6000823e3d601f19601f82011682018060405250810190610b2a919061300e565b9050919050565b6000610b3b61156a565b90508073ffffffffffffffffffffffffffffffffffffffff168673ffffffffffffffffffffffffffffffffffffffff1614158015610b805750610b7e8682610f79565b155b15610bc45780866040517fe237d922000000000000000000000000000000000000000000000000000000008152600401610bbb9291906132c2565b60405180910390fd5b610bd18686868686611572565b505050505050565b60608151835114610c2557815183516040517f5b059991000000000000000000000000000000000000000000000000000000008152600401610c1c9291906132eb565b60405180910390fd5b6000835167ffffffffffffffff811115610c4257610c416126e8565b5b604051908082528060200260200182016040528015610c705781602001602082028036833780820191505090505b50905060005b8451811015610cd757610cad610c95828761166a90919063ffffffff16565b610ca8838761167e90919063ffffffff16565b6103a7565b828281518110610cc057610cbf613314565b5b602002602001018181525050806001019050610c76565b508091505092915050565b610cea6112ea565b610cf46000611692565b565b610cfe6112ea565b600073ffffffffffffffffffffffffffffffffffffffff16600460009054906101000a900473ffffffffffffffffffffffffffffffffffffffff1673ffffffffffffffffffffffffffffffffffffffff1603610d86576040517f61d2c1e900000000000000000000000000000000000000000000000000000000815260040160405180910390fd5b600460009054906101000a900473ffffffffffffffffffffffffffffffffffffffff1673ffffffffffffffffffffffffffffffffffffffff1663861d7daf826040518263ffffffff1660e01b8152600401610de191906122d6565b600060405180830381600087803b158015610dfb57600080fd5b505af1158015610e0f573d6000803e3d6000fd5b5050505050565b6000600360009054906101000a900473ffffffffffffffffffffffffffffffffffffffff16905090565b610e52610e4b61156a565b8383611758565b5050565b610e5e6112ea565b600073ffffffffffffffffffffffffffffffffffffffff16600460009054906101000a900473ffffffffffffffffffffffffffffffffffffffff1673ffffffffffffffffffffffffffffffffffffffff1603610ee6576040517f61d2c1e900000000000000000000000000000000000000000000000000000000815260040160405180910390fd5b600460009054906101000a900473ffffffffffffffffffffffffffffffffffffffff1673ffffffffffffffffffffffffffffffffffffffff1663a6eecd1883836040518363ffffffff1660e01b8152600401610f43929190613343565b600060405180830381600087803b158015610f5d57600080fd5b505af1158015610f71573d6000803e3d6000fd5b505050505050565b6000600160008473ffffffffffffffffffffffffffffffffffffffff1673ffffffffffffffffffffffffffffffffffffffff16815260200190815260200160002060008373ffffffffffffffffffffffffffffffffffffffff1673ffffffffffffffffffffffffffffffffffffffff16815260200190815260200160002060009054906101000a900460ff16905092915050565b600061101761156a565b90508073ffffffffffffffffffffffffffffffffffffffff168673ffffffffffffffffffffffffffffffffffffffff161415801561105c575061105a8682610f79565b155b156110a05780866040517fe237d9220000000000000000000000000000000000000000000000000000000081526004016110979291906132c2565b60405180910390fd5b6110ad86868686866118c8565b505050505050565b6110bd6112ea565b600073ffffffffffffffffffffffffffffffffffffffff168173ffffffffffffffffffffffffffffffffffffffff160361112f5760006040517f1e4fbdf70000000000000000000000000000000000000000000000000000000081526004016111269190612bd9565b60405180910390fd5b61113881611692565b50565b60008073ffffffffffffffffffffffffffffffffffffffff16600460009054906101000a900473ffffffffffffffffffffffffffffffffffffffff1673ffffffffffffffffffffffffffffffffffffffff16036111c4576040517f61d2c1e900000000000000000000000000000000000000000000000000000000815260040160405180910390fd5b600460009054906101000a900473ffffffffffffffffffffffffffffffffffffffff1673ffffffffffffffffffffffffffffffffffffffff1663f97c44a96040518163ffffffff1660e01b8152600401602060405180830381865afa158015611231573d6000803e3d6000fd5b505050506040513d601f19601f820116820180604052508101906112559190612edf565b905090565b600460009054906101000a900473ffffffffffffffffffffffffffffffffffffffff1681565b60007f01ffc9a7000000000000000000000000000000000000000000000000000000007bffffffffffffffffffffffffffffffffffffffffffffffffffffffff1916827bffffffffffffffffffffffffffffffffffffffffffffffffffffffff1916149050919050565b6112f261156a565b73ffffffffffffffffffffffffffffffffffffffff16611310610e16565b73ffffffffffffffffffffffffffffffffffffffff161461136f5761133361156a565b6040517f118cdaa70000000000000000000000000000000000000000000000000000000081526004016113669190612bd9565b60405180910390fd5b565b6060600082036113b8576040518060400160405280600181526020017f300000000000000000000000000000000000000000000000000000000000000081525090506114cc565b600082905060005b600082146113ea5780806113d3906133a9565b915050600a826113e39190613420565b91506113c0565b60008167ffffffffffffffff811115611406576114056126e8565b5b6040519080825280601f01601f1916602001820160405280156114385781602001600182028036833780820191505090505b5090505b600085146114c5576001826114519190613451565b9150600a856114609190613485565b603061146c91906134b6565b60f81b81838151811061148257611481613314565b5b60200101907effffffffffffffffffffffffffffffffffffffffffffffffffffffffffffff1916908160001a905350600a856114be9190613420565b945061143c565b8093505050505b919050565b600073ffffffffffffffffffffffffffffffffffffffff168473ffffffffffffffffffffffffffffffffffffffff16036115435760006040517f57f447ce00000000000000000000000000000000000000000000000000000000815260040161153a9190612bd9565b60405180910390fd5b60008061155085856119d3565b91509150611562600087848487611a03565b505050505050565b600033905090565b600073ffffffffffffffffffffffffffffffffffffffff168473ffffffffffffffffffffffffffffffffffffffff16036115e45760006040517f57f447ce0000000000000000000000000000000000000000000000000000000081526004016115db9190612bd9565b60405180910390fd5b600073ffffffffffffffffffffffffffffffffffffffff168573ffffffffffffffffffffffffffffffffffffffff16036116565760006040517f01a8351400000000000000000000000000000000000000000000000000000000815260040161164d9190612bd9565b60405180910390fd5b6116638585858585611a03565b5050505050565b600060208202602084010151905092915050565b600060208202602084010151905092915050565b6000600360009054906101000a900473ffffffffffffffffffffffffffffffffffffffff16905081600360006101000a81548173ffffffffffffffffffffffffffffffffffffffff021916908373ffffffffffffffffffffffffffffffffffffffff1602179055508173ffffffffffffffffffffffffffffffffffffffff168173ffffffffffffffffffffffffffffffffffffffff167f8be0079c531659141344cd1fd0a4f28419497f9722a3daafe3b4186f6b6457e060405160405180910390a35050565b600073ffffffffffffffffffffffffffffffffffffffff168273ffffffffffffffffffffffffffffffffffffffff16036117ca5760006040517fced3e1000000000000000000000000000000000000000000000000000000000081526004016117c19190612bd9565b60405180910390fd5b80600160008573ffffffffffffffffffffffffffffffffffffffff1673ffffffffffffffffffffffffffffffffffffffff16815260200190815260200160002060008473ffffffffffffffffffffffffffffffffffffffff1673ffffffffffffffffffffffffffffffffffffffff16815260200190815260200160002060006101000a81548160ff0219169083151502179055508173ffffffffffffffffffffffffffffffffffffffff168373ffffffffffffffffffffffffffffffffffffffff167f17307eab39ab6107e8899845ad3d59bd9653f200f220920489ca2b5937696c31836040516118bb9190612391565b60405180910390a3505050565b600073ffffffffffffffffffffffffffffffffffffffff168473ffffffffffffffffffffffffffffffffffffffff160361193a5760006040517f57f447ce0000000000000000000000000000000000000000000000000000000081526004016119319190612bd9565b60405180910390fd5b600073ffffffffffffffffffffffffffffffffffffffff168573ffffffffffffffffffffffffffffffffffffffff16036119ac5760006040517f01a835140000000000000000000000000000000000000000000000000000000081526004016119a39190612bd9565b60405180910390fd5b6000806119b985856119d3565b915091506119ca8787848487611a03565b50505050505050565b60608060405191506001825283602083015260408201905060018152826020820152604081016040529250929050565b611a0f85858585611ab5565b600073ffffffffffffffffffffffffffffffffffffffff168473ffffffffffffffffffffffffffffffffffffffff1614611aae576000611a4d61156a565b90506001845103611a9d576000611a6e60008661167e90919063ffffffff16565b90506000611a8660008661167e90919063ffffffff16565b9050611a96838989858589611e5d565b5050611aac565b611aab818787878787612011565b5b505b5050505050565b8051825114611aff57815181516040517f5b059991000000000000000000000000000000000000000000000000000000008152600401611af69291906132eb565b60405180910390fd5b6000611b0961156a565b905060005b8351811015611d18576000611b2c828661167e90919063ffffffff16565b90506000611b43838661167e90919063ffffffff16565b9050600073ffffffffffffffffffffffffffffffffffffffff168873ffffffffffffffffffffffffffffffffffffffff1614611c7057600080600084815260200190815260200160002060008a73ffffffffffffffffffffffffffffffffffffffff1673ffffffffffffffffffffffffffffffffffffffff16815260200190815260200160002054905081811015611c1857888183856040517f03dee4c5000000000000000000000000000000000000000000000000000000008152600401611c0f94939291906134ea565b60405180910390fd5b81810360008085815260200190815260200160002060008b73ffffffffffffffffffffffffffffffffffffffff1673ffffffffffffffffffffffffffffffffffffffff16815260200190815260200160002081905550505b600073ffffffffffffffffffffffffffffffffffffffff168773ffffffffffffffffffffffffffffffffffffffff1614611d0b578060008084815260200190815260200160002060008973ffffffffffffffffffffffffffffffffffffffff1673ffffffffffffffffffffffffffffffffffffffff1681526020019081526020016000206000828254611d0391906134b6565b925050819055505b5050806001019050611b0e565b506001835103611dd7576000611d3860008561167e90919063ffffffff16565b90506000611d5060008561167e90919063ffffffff16565b90508573ffffffffffffffffffffffffffffffffffffffff168773ffffffffffffffffffffffffffffffffffffffff168473ffffffffffffffffffffffffffffffffffffffff167fc3d58168c5ae7397731d063d5bbf3d657854427343f4c083240f7aacaa2d0f628585604051611dc89291906132eb565b60405180910390a45050611e56565b8373ffffffffffffffffffffffffffffffffffffffff168573ffffffffffffffffffffffffffffffffffffffff168273ffffffffffffffffffffffffffffffffffffffff167f4a39dc06d4c0dbc64b70af90fd698a233a518aa5d07e595d983b8c0526c8f7fb8686604051611e4d92919061352f565b60405180910390a45b5050505050565b60008473ffffffffffffffffffffffffffffffffffffffff163b1115612009578373ffffffffffffffffffffffffffffffffffffffff1663f23a6e6187878686866040518663ffffffff1660e01b8152600401611ebe9594939291906135bb565b6020604051808303816000875af1925050508015611efa57506040513d601f19601f82011682018060405250810190611ef7919061362a565b60015b611f7e573d8060008114611f2a576040519150601f19603f3d011682016040523d82523d6000602084013e611f2f565b606091505b506000815103611f7657846040517f57f447ce000000000000000000000000000000000000000000000000000000008152600401611f6d9190612bd9565b60405180910390fd5b805181602001fd5b63f23a6e6160e01b7bffffffffffffffffffffffffffffffffffffffffffffffffffffffff1916817bffffffffffffffffffffffffffffffffffffffffffffffffffffffff19161461200757846040517f57f447ce000000000000000000000000000000000000000000000000000000008152600401611ffe9190612bd9565b60405180910390fd5b505b505050505050565b60008473ffffffffffffffffffffffffffffffffffffffff163b11156121bd578373ffffffffffffffffffffffffffffffffffffffff1663bc197c8187878686866040518663ffffffff1660e01b8152600401612072959493929190613657565b6020604051808303816000875af19250505080156120ae57506040513d601f19601f820116820180604052508101906120ab919061362a565b60015b612132573d80600081146120de576040519150601f19603f3d011682016040523d82523d6000602084013e6120e3565b606091505b50600081510361212a57846040517f57f447ce0000000000000000000000000000000000000000000000000000000081526004016121219190612bd9565b60405180910390fd5b805181602001fd5b63bc197c8160e01b7bffffffffffffffffffffffffffffffffffffffffffffffffffffffff1916817bffffffffffffffffffffffffffffffffffffffffffffffffffffffff1916146121bb57846040517f57f447ce0000000000000000000000000000000000000000000000000000000081526004016121b29190612bd9565b60405180910390fd5b505b505050505050565b604051806040016040528060608152602001606081525090565b6000604051905090565b600080fd5b600080fd5b600073ffffffffffffffffffffffffffffffffffffffff82169050919050565b600061221e826121f3565b9050919050565b61222e81612213565b811461223957600080fd5b50565b60008135905061224b81612225565b92915050565b6000819050919050565b61226481612251565b811461226f57600080fd5b50565b6000813590506122818161225b565b92915050565b6000806040838503121561229e5761229d6121e9565b5b60006122ac8582860161223c565b92505060206122bd85828601612272565b9150509250929050565b6122d081612251565b82525050565b60006020820190506122eb60008301846122c7565b92915050565b60007fffffffff0000000000000000000000000000000000000000000000000000000082169050919050565b612326816122f1565b811461233157600080fd5b50565b6000813590506123438161231d565b92915050565b60006020828403121561235f5761235e6121e9565b5b600061236d84828501612334565b91505092915050565b60008115159050919050565b61238b81612376565b82525050565b60006020820190506123a66000830184612382565b92915050565b6000602082840312156123c2576123c16121e9565b5b60006123d08482850161223c565b91505092915050565b6000602082840312156123ef576123ee6121e9565b5b60006123fd84828501612272565b91505092915050565b600081519050919050565b600082825260208201905092915050565b60005b83811015612440578082015181840152602081019050612425565b60008484015250505050565b6000601f19601f8301169050919050565b600061246882612406565b6124728185612411565b9350612482818560208601612422565b61248b8161244c565b840191505092915050565b600060208201905081810360008301526124b0818461245d565b905092915050565b600081519050919050565b600082825260208201905092915050565b6000819050602082019050919050565b600082825260208201905092915050565b600061250082612406565b61250a81856124e4565b935061251a818560208601612422565b6125238161244c565b840191505092915050565b6000604083016000830151848203600086015261254b82826124f5565b9150506020830151848203602086015261256582826124f5565b9150508091505092915050565b600061257e838361252e565b905092915050565b6000602082019050919050565b600061259e826124b8565b6125a881856124c3565b9350836020820285016125ba856124d4565b8060005b858110156125f657848403895281516125d78582612572565b94506125e283612586565b925060208a019950506001810190506125be565b50829750879550505050505092915050565b600060208201905081810360008301526126228184612593565b905092915050565b600080600060608486031215612643576126426121e9565b5b60006126518682870161223c565b935050602061266286828701612272565b925050604061267386828701612272565b9150509250925092565b6000604083016000830151848203600086015261269a82826124f5565b915050602083015184820360208601526126b482826124f5565b9150508091505092915050565b600060208201905081810360008301526126db818461267d565b905092915050565b600080fd5b7f4e487b7100000000000000000000000000000000000000000000000000000000600052604160045260246000fd5b6127208261244c565b810181811067ffffffffffffffff8211171561273f5761273e6126e8565b5b80604052505050565b60006127526121df565b905061275e8282612717565b919050565b600067ffffffffffffffff82111561277e5761277d6126e8565b5b602082029050602081019050919050565b600080fd5b60006127a76127a284612763565b612748565b905080838252602082019050602084028301858111156127ca576127c961278f565b5b835b818110156127f357806127df8882612272565b8452602084019350506020810190506127cc565b5050509392505050565b600082601f830112612812576128116126e3565b5b8135612822848260208601612794565b91505092915050565b600080fd5b600067ffffffffffffffff82111561284b5761284a6126e8565b5b6128548261244c565b9050602081019050919050565b82818337600083830152505050565b600061288361287e84612830565b612748565b90508281526020810184848401111561289f5761289e61282b565b5b6128aa848285612861565b509392505050565b600082601f8301126128c7576128c66126e3565b5b81356128d7848260208601612870565b91505092915050565b600080600080600060a086880312156128fc576128fb6121e9565b5b600061290a8882890161223c565b955050602061291b8882890161223c565b945050604086013567ffffffffffffffff81111561293c5761293b6121ee565b5b612948888289016127fd565b935050606086013567ffffffffffffffff811115612969576129686121ee565b5b612975888289016127fd565b925050608086013567ffffffffffffffff811115612996576129956121ee565b5b6129a2888289016128b2565b9150509295509295909350565b600067ffffffffffffffff8211156129ca576129c96126e8565b5b602082029050602081019050919050565b60006129ee6129e9846129af565b612748565b90508083825260208201905060208402830185811115612a1157612a1061278f565b5b835b81811015612a3a5780612a26888261223c565b845260208401935050602081019050612a13565b5050509392505050565b600082601f830112612a5957612a586126e3565b5b8135612a698482602086016129db565b91505092915050565b60008060408385031215612a8957612a886121e9565b5b600083013567ffffffffffffffff811115612aa757612aa66121ee565b5b612ab385828601612a44565b925050602083013567ffffffffffffffff811115612ad457612ad36121ee565b5b612ae0858286016127fd565b9150509250929050565b600081519050919050565b600082825260208201905092915050565b6000819050602082019050919050565b612b1f81612251565b82525050565b6000612b318383612b16565b60208301905092915050565b6000602082019050919050565b6000612b5582612aea565b612b5f8185612af5565b9350612b6a83612b06565b8060005b83811015612b9b578151612b828882612b25565b9750612b8d83612b3d565b925050600181019050612b6e565b5085935050505092915050565b60006020820190508181036000830152612bc28184612b4a565b905092915050565b612bd381612213565b82525050565b6000602082019050612bee6000830184612bca565b92915050565b612bfd81612376565b8114612c0857600080fd5b50565b600081359050612c1a81612bf4565b92915050565b60008060408385031215612c3757612c366121e9565b5b6000612c458582860161223c565b9250506020612c5685828601612c0b565b9150509250929050565b600067ffffffffffffffff821115612c7b57612c7a6126e8565b5b612c848261244c565b9050602081019050919050565b6000612ca4612c9f84612c60565b612748565b905082815260208101848484011115612cc057612cbf61282b565b5b612ccb848285612861565b509392505050565b600082601f830112612ce857612ce76126e3565b5b8135612cf8848260208601612c91565b91505092915050565b60008060408385031215612d1857612d176121e9565b5b600083013567ffffffffffffffff811115612d3657612d356121ee565b5b612d4285828601612cd3565b925050602083013567ffffffffffffffff811115612d6357612d626121ee565b5b612d6f85828601612cd3565b9150509250929050565b60008060408385031215612d9057612d8f6121e9565b5b6000612d9e8582860161223c565b9250506020612daf8582860161223c565b9150509250929050565b600080600080600060a08688031215612dd557612dd46121e9565b5b6000612de38882890161223c565b9550506020612df48882890161223c565b9450506040612e0588828901612272565b9350506060612e1688828901612272565b925050608086013567ffffffffffffffff811115612e3757612e366121ee565b5b612e43888289016128b2565b9150509295509295909350565b6000819050919050565b6000612e75612e70612e6b846121f3565b612e50565b6121f3565b9050919050565b6000612e8782612e5a565b9050919050565b6000612e9982612e7c565b9050919050565b612ea981612e8e565b82525050565b6000602082019050612ec46000830184612ea0565b92915050565b600081519050612ed98161225b565b92915050565b600060208284031215612ef557612ef46121e9565b5b6000612f0384828501612eca565b91505092915050565b600080fd5b600080fd5b6000612f29612f2484612c60565b612748565b905082815260208101848484011115612f4557612f4461282b565b5b612f50848285612422565b509392505050565b600082601f830112612f6d57612f6c6126e3565b5b8151612f7d848260208601612f16565b91505092915050565b600060408284031215612f9c57612f9b612f0c565b5b612fa66040612748565b9050600082015167ffffffffffffffff811115612fc657612fc5612f11565b5b612fd284828501612f58565b600083015250602082015167ffffffffffffffff811115612ff657612ff5612f11565b5b61300284828501612f58565b60208301525092915050565b600060208284031215613024576130236121e9565b5b600082015167ffffffffffffffff811115613042576130416121ee565b5b61304e84828501612f86565b91505092915050565b7f7b226e616d65223a202247616c6c657279204e46542023000000000000000000815250565b600081905092915050565b600061309382612406565b61309d818561307d565b93506130ad818560208601612422565b80840191505092915050565b7f222c20226465736372697074696f6e223a202200000000000000000000000000815250565b7f222c2022696d616765223a202200000000000000000000000000000000000000815250565b7f227d000000000000000000000000000000000000000000000000000000000000815250565b600061313682613057565b6017820191506131468286613088565b9150613151826130b9565b6013820191506131618285613088565b915061316c826130df565b600d8201915061317c8284613088565b915061318782613105565b600282019150819050949350505050565b600067ffffffffffffffff8211156131b3576131b26126e8565b5b602082029050602081019050919050565b60006131d76131d284613198565b612748565b905080838252602082019050602084028301858111156131fa576131f961278f565b5b835b8181101561324157805167ffffffffffffffff81111561321f5761321e6126e3565b5b80860161322c8982612f86565b855260208501945050506020810190506131fc565b5050509392505050565b600082601f8301126132605761325f6126e3565b5b81516132708482602086016131c4565b91505092915050565b60006020828403121561328f5761328e6121e9565b5b600082015167ffffffffffffffff8111156132ad576132ac6121ee565b5b6132b98482850161324b565b91505092915050565b60006040820190506132d76000830185612bca565b6132e46020830184612bca565b9392505050565b600060408201905061330060008301856122c7565b61330d60208301846122c7565b9392505050565b7f4e487b7100000000000000000000000000000000000000000000000000000000600052603260045260246000fd5b6000604082019050818103600083015261335d818561245d565b90508181036020830152613371818461245d565b90509392505050565b7f4e487b7100000000000000000000000000000000000000000000000000000000600052601160045260246000fd5b60006133b482612251565b91507fffffffffffffffffffffffffffffffffffffffffffffffffffffffffffffffff82036133e6576133e561337a565b5b600182019050919050565b7f4e487b7100000000000000000000000000000000000000000000000000000000600052601260045260246000fd5b600061342b82612251565b915061343683612251565b925082613446576134456133f1565b5b828204905092915050565b600061345c82612251565b915061346783612251565b925082820390508181111561347f5761347e61337a565b5b92915050565b600061349082612251565b915061349b83612251565b9250826134ab576134aa6133f1565b5b828206905092915050565b60006134c182612251565b91506134cc83612251565b92508282019050808211156134e4576134e361337a565b5b92915050565b60006080820190506134ff6000830187612bca565b61350c60208301866122c7565b61351960408301856122c7565b61352660608301846122c7565b95945050505050565b600060408201905081810360008301526135498185612b4a565b9050818103602083015261355d8184612b4a565b90509392505050565b600081519050919050565b600082825260208201905092915050565b600061358d82613566565b6135978185613571565b93506135a7818560208601612422565b6135b08161244c565b840191505092915050565b600060a0820190506135d06000830188612bca565b6135dd6020830187612bca565b6135ea60408301866122c7565b6135f760608301856122c7565b81810360808301526136098184613582565b90509695505050505050565b6000815190506136248161231d565b92915050565b6000602082840312156136405761363f6121e9565b5b600061364e84828501613615565b91505092915050565b600060a08201905061366c6000830188612bca565b6136796020830187612bca565b818103604083015261368b8186612b4a565b9050818103606083015261369f8185612b4a565b905081810360808301526136b38184613582565b9050969550505050505056fea2646970667358221220a108fc9ddc6ef22d87b9775f48266b9df429d7590791931ddda8700177ec83b364736f6c634300081c0033608060405234801561001057600080fd5b506040516117a43803806117a4833981810160405281019061003291906101e2565b80600073ffffffffffffffffffffffffffffffffffffffff168173ffffffffffffffffffffffffffffffffffffffff16036100a55760006040517f1e4fbdf700000000000000000000000000000000000000000000000000000000815260040161009c919061021e565b60405180910390fd5b6100b4816100bb60201b60201c565b5050610239565b60008060009054906101000a900473ffffffffffffffffffffffffffffffffffffffff169050816000806101000a81548173ffffffffffffffffffffffffffffffffffffffff021916908373ffffffffffffffffffffffffffffffffffffffff1602179055508173ffffffffffffffffffffffffffffffffffffffff168173ffffffffffffffffffffffffffffffffffffffff167f8be0079c531659141344cd1fd0a4f28419497f9722a3daafe3b4186f6b6457e060405160405180910390a35050565b600080fd5b600073ffffffffffffffffffffffffffffffffffffffff82169050919050565b60006101af82610184565b9050919050565b6101bf816101a4565b81146101ca57600080fd5b50565b6000815190506101dc816101b6565b92915050565b6000602082840312156101f8576101f761017f565b5b6000610206848285016101cd565b91505092915050565b610218816101a4565b82525050565b6000602082019050610233600083018461020f565b92915050565b61155c806102486000396000f3fe608060405234801561001057600080fd5b50600436106100935760003560e01c8063861d7daf11610066578063861d7daf146101215780638da5cb5b1461013d578063a6eecd181461015b578063f2fde38b14610177578063f97c44a91461019357610093565b806311498334146100985780632607aafa146100b6578063715018a6146100e657806384856482146100f0575b600080fd5b6100a06101b1565b6040516100ad9190610c20565b60405180910390f35b6100d060048036038101906100cb9190610c8c565b610334565b6040516100dd9190610cfd565b60405180910390f35b6100ee6104e4565b005b61010a60048036038101906101059190610c8c565b6104f8565b604051610118929190610d69565b60405180910390f35b61013b60048036038101906101369190610c8c565b61063c565b005b61014561078a565b6040516101529190610de1565b60405180910390f35b61017560048036038101906101709190610f31565b6107b3565b005b610191600480360381019061018c9190610fd5565b61082d565b005b61019b6108b3565b6040516101a89190611011565b60405180910390f35b60606001805480602002602001604051908101604052809291908181526020016000905b8282101561032b57838290600052602060002090600202016040518060400160405290816000820180546102089061105b565b80601f01602080910402602001604051908101604052809291908181526020018280546102349061105b565b80156102815780601f1061025657610100808354040283529160200191610281565b820191906000526020600020905b81548152906001019060200180831161026457829003601f168201915b5050505050815260200160018201805461029a9061105b565b80601f01602080910402602001604051908101604052809291908181526020018280546102c69061105b565b80156103135780601f106102e857610100808354040283529160200191610313565b820191906000526020600020905b8154815290600101906020018083116102f657829003601f168201915b505050505081525050815260200190600101906101d5565b50505050905090565b61033c610a13565b600180549050821061038c57816001805490506040517f1cc6e63100000000000000000000000000000000000000000000000000000000815260040161038392919061108c565b60405180910390fd5b600182815481106103a05761039f6110b5565b5b90600052602060002090600202016040518060400160405290816000820180546103c99061105b565b80601f01602080910402602001604051908101604052809291908181526020018280546103f59061105b565b80156104425780601f1061041757610100808354040283529160200191610442565b820191906000526020600020905b81548152906001019060200180831161042557829003601f168201915b5050505050815260200160018201805461045b9061105b565b80601f01602080910402602001604051908101604052809291908181526020018280546104879061105b565b80156104d45780601f106104a9576101008083540402835291602001916104d4565b820191906000526020600020905b8154815290600101906020018083116104b757829003601f168201915b5050505050815250509050919050565b6104ec6108c0565b6104f66000610947565b565b6001818154811061050857600080fd5b906000526020600020906002020160009150905080600001805461052b9061105b565b80601f01602080910402602001604051908101604052809291908181526020018280546105579061105b565b80156105a45780601f10610579576101008083540402835291602001916105a4565b820191906000526020600020905b81548152906001019060200180831161058757829003601f168201915b5050505050908060010180546105b99061105b565b80601f01602080910402602001604051908101604052809291908181526020018280546105e59061105b565b80156106325780601f1061060757610100808354040283529160200191610632565b820191906000526020600020905b81548152906001019060200180831161061557829003601f168201915b5050505050905082565b6106446108c0565b600180549050811061069457806001805490506040517f1cc6e63100000000000000000000000000000000000000000000000000000000815260040161068b92919061108c565b60405180910390fd5b60008190505b600180805490506106ab9190611113565b81101561073b57600180826106c09190611147565b815481106106d1576106d06110b5565b5b9060005260206000209060020201600182815481106106f3576106f26110b5565b5b906000526020600020906002020160008201816000019081610715919061133d565b506001820181600101908161072a919061133d565b50905050808060010191505061069a565b50600180548061074e5761074d611425565b5b6001900381819060005260206000209060020201600080820160006107739190610a2d565b6001820160006107839190610a2d565b5050905550565b60008060009054906101000a900473ffffffffffffffffffffffffffffffffffffffff16905090565b6107bb6108c0565b6001604051806040016040528084815260200183815250908060018154018082558091505060019003906000526020600020906002020160009091909190915060008201518160000190816108109190611454565b5060208201518160010190816108269190611454565b5050505050565b6108356108c0565b600073ffffffffffffffffffffffffffffffffffffffff168173ffffffffffffffffffffffffffffffffffffffff16036108a75760006040517f1e4fbdf700000000000000000000000000000000000000000000000000000000815260040161089e9190610de1565b60405180910390fd5b6108b081610947565b50565b6000600180549050905090565b6108c8610a0b565b73ffffffffffffffffffffffffffffffffffffffff166108e661078a565b73ffffffffffffffffffffffffffffffffffffffff161461094557610909610a0b565b6040517f118cdaa700000000000000000000000000000000000000000000000000000000815260040161093c9190610de1565b60405180910390fd5b565b60008060009054906101000a900473ffffffffffffffffffffffffffffffffffffffff169050816000806101000a81548173ffffffffffffffffffffffffffffffffffffffff021916908373ffffffffffffffffffffffffffffffffffffffff1602179055508173ffffffffffffffffffffffffffffffffffffffff168173ffffffffffffffffffffffffffffffffffffffff167f8be0079c531659141344cd1fd0a4f28419497f9722a3daafe3b4186f6b6457e060405160405180910390a35050565b600033905090565b604051806040016040528060608152602001606081525090565b508054610a399061105b565b6000825580601f10610a4b5750610a6a565b601f016020900490600052602060002090810190610a699190610a6d565b5b50565b5b80821115610a86576000816000905550600101610a6e565b5090565b600081519050919050565b600082825260208201905092915050565b6000819050602082019050919050565b600081519050919050565b600082825260208201905092915050565b60005b83811015610af0578082015181840152602081019050610ad5565b60008484015250505050565b6000601f19601f8301169050919050565b6000610b1882610ab6565b610b228185610ac1565b9350610b32818560208601610ad2565b610b3b81610afc565b840191505092915050565b60006040830160008301518482036000860152610b638282610b0d565b91505060208301518482036020860152610b7d8282610b0d565b9150508091505092915050565b6000610b968383610b46565b905092915050565b6000602082019050919050565b6000610bb682610a8a565b610bc08185610a95565b935083602082028501610bd285610aa6565b8060005b85811015610c0e5784840389528151610bef8582610b8a565b9450610bfa83610b9e565b925060208a01995050600181019050610bd6565b50829750879550505050505092915050565b60006020820190508181036000830152610c3a8184610bab565b905092915050565b6000604051905090565b600080fd5b600080fd5b6000819050919050565b610c6981610c56565b8114610c7457600080fd5b50565b600081359050610c8681610c60565b92915050565b600060208284031215610ca257610ca1610c4c565b5b6000610cb084828501610c77565b91505092915050565b60006040830160008301518482036000860152610cd68282610b0d565b91505060208301518482036020860152610cf08282610b0d565b9150508091505092915050565b60006020820190508181036000830152610d178184610cb9565b905092915050565b600082825260208201905092915050565b6000610d3b82610ab6565b610d458185610d1f565b9350610d55818560208601610ad2565b610d5e81610afc565b840191505092915050565b60006040820190508181036000830152610d838185610d30565b90508181036020830152610d978184610d30565b90509392505050565b600073ffffffffffffffffffffffffffffffffffffffff82169050919050565b6000610dcb82610da0565b9050919050565b610ddb81610dc0565b82525050565b6000602082019050610df66000830184610dd2565b92915050565b600080fd5b600080fd5b7f4e487b7100000000000000000000000000000000000000000000000000000000600052604160045260246000fd5b610e3e82610afc565b810181811067ffffffffffffffff82111715610e5d57610e5c610e06565b5b80604052505050565b6000610e70610c42565b9050610e7c8282610e35565b919050565b600067ffffffffffffffff821115610e9c57610e9b610e06565b5b610ea582610afc565b9050602081019050919050565b82818337600083830152505050565b6000610ed4610ecf84610e81565b610e66565b905082815260208101848484011115610ef057610eef610e01565b5b610efb848285610eb2565b509392505050565b600082601f830112610f1857610f17610dfc565b5b8135610f28848260208601610ec1565b91505092915050565b60008060408385031215610f4857610f47610c4c565b5b600083013567ffffffffffffffff811115610f6657610f65610c51565b5b610f7285828601610f03565b925050602083013567ffffffffffffffff811115610f9357610f92610c51565b5b610f9f85828601610f03565b9150509250929050565b610fb281610dc0565b8114610fbd57600080fd5b50565b600081359050610fcf81610fa9565b92915050565b600060208284031215610feb57610fea610c4c565b5b6000610ff984828501610fc0565b91505092915050565b61100b81610c56565b82525050565b60006020820190506110266000830184611002565b92915050565b7f4e487b7100000000000000000000000000000000000000000000000000000000600052602260045260246000fd5b6000600282049050600182168061107357607f821691505b6020821081036110865761108561102c565b5b50919050565b60006040820190506110a16000830185611002565b6110ae6020830184611002565b9392505050565b7f4e487b7100000000000000000000000000000000000000000000000000000000600052603260045260246000fd5b7f4e487b7100000000000000000000000000000000000000000000000000000000600052601160045260246000fd5b600061111e82610c56565b915061112983610c56565b9250828203905081811115611141576111406110e4565b5b92915050565b600061115282610c56565b915061115d83610c56565b9250828201905080821115611175576111746110e4565b5b92915050565b60008154905061118a8161105b565b9050919050565b60008190508160005260206000209050919050565b60006020601f8301049050919050565b600082821b905092915050565b6000600883026111f37fffffffffffffffffffffffffffffffffffffffffffffffffffffffffffffffff826111b6565b6111fd86836111b6565b95508019841693508086168417925050509392505050565b6000819050919050565b600061123a61123561123084610c56565b611215565b610c56565b9050919050565b6000819050919050565b6112548361121f565b61126861126082611241565b8484546111c3565b825550505050565b600090565b61127d611270565b61128881848461124b565b505050565b5b818110156112ac576112a1600082611275565b60018101905061128e565b5050565b601f8211156112f1576112c281611191565b6112cb846111a6565b810160208510156112da578190505b6112ee6112e6856111a6565b83018261128d565b50505b505050565b600082821c905092915050565b6000611314600019846008026112f6565b1980831691505092915050565b600061132d8383611303565b9150826002028217905092915050565b81810361134b575050611423565b6113548261117b565b67ffffffffffffffff81111561136d5761136c610e06565b5b611377825461105b565b6113828282856112b0565b6000601f8311600181146113b1576000841561139f578287015490505b6113a98582611321565b86555061141c565b601f1984166113bf87611191565b96506113ca86611191565b60005b828110156113f2578489015482556001820191506001850194506020810190506113cd565b8683101561140f578489015461140b601f891682611303565b8355505b6001600288020188555050505b5050505050505b565b7f4e487b7100000000000000000000000000000000000000000000000000000000600052603160045260246000fd5b61145d82610ab6565b67ffffffffffffffff81111561147657611475610e06565b5b611480825461105b565b61148b8282856112b0565b600060209050601f8311600181146114be57600084156114ac578287015190505b6114b68582611321565b86555061151e565b601f1984166114cc86611191565b60005b828110156114f4578489015182556001820191506020850194506020810190506114cf565b86831015611511578489015161150d601f891682611303565b8355505b6001600288020188555050505b50505050505056fea2646970667358221220d981dc8adfb67db502d2d402054a4eb0ab85abb42f86e3a1be17312fc7baa9f064736f6c634300081c0033a2646970667358221220c879415af4c4c9d0cd41d8878804c9744250742a55b67f93aeb5820f1962494264736f6c634300081c0033",
  "linkReferences": {},
  "deployedLinkReferences": {}
}