{
  "_format": "hh-sol-artifact-1",
  "contractName": "PersonalImageGallery",
  "sourceName": "contracts/PersonalImageGallery.sol",
  "abi": [
    {
      "inputs": [
        {
          "internalType": "address",
          "name": "_owner",
          "type": "address"
        }
      ],
      "stateMutability": "nonpayable",
      "type": "constructor"
    },
    {
      "inputs": [
        {
          "internalType": "address",
          "name": "owner",
          "type": "address"
        }
      ],
      "name": "OwnableInvalidOwner",
      "type": "error"
    },
    {
      "inputs": [
        {
          "internalType": "address",
          "name": "account",
          "type": "address"
        }
      ],
      "name": "OwnableUnauthorizedAccount",
      "type": "error"
    },
    {
      "anonymous": false,
      "inputs": [
        {
          "indexed": true,
          "internalType": "address",
          "name": "previousOwner",
          "type": "address"
        },
        {
          "indexed": true,
          "internalType": "address",
          "name": "newOwner",
          "type": "address"
        }
      ],
      "name": "OwnershipTransferred",
      "type": "event"
    },
    {
      "inputs": [
        {
          "internalType": "string",
          "name": "_description",
          "type": "string"
        },
        {
          "internalType": "string",
          "name": "_base64EncodedImage",
          "type": "string"
        }
      ],
      "name": "addImage",
      "outputs": [],
      "stateMutability": "nonpayable",
      "type": "function"
    },
    {
      "inputs": [
        {
          "internalType": "uint256",
          "name": "index",
          "type": "uint256"
        }
      ],
      "name": "deleteImage",
      "outputs": [],
      "stateMutability": "nonpayable",
      "type": "function"
    },
    {
      "inputs": [],
      "name": "getImages",
      "outputs": [
        {
          "components": [
            {
              "internalType": "string",
              "name": "description",
              "type": "string"
            },
            {
              "internalType": "string",
              "name": "base64EncodedImage",
              "type": "string"
            }
          ],
          "internalType": "struct PersonalImageGallery.Image[]",
          "name": "",
          "type": "tuple[]"
        }
      ],
      "stateMutability": "view",
      "type": "function"
    },
    {
      "inputs": [
        {
          "internalType": "uint256",
          "name": "",
          "type": "uint256"
        }
      ],
      "name": "images",
      "outputs": [
        {
          "internalType": "string",
          "name": "description",
          "type": "string"
        },
        {
          "internalType": "string",
          "name": "base64EncodedImage",
          "type": "string"
        }
      ],
      "stateMutability": "view",
      "type": "function"
    },
    {
      "inputs": [],
      "name": "owner",
      "outputs": [
        {
          "internalType": "address",
          "name": "",
          "type": "address"
        }
      ],
      "stateMutability": "view",
      "type": "function"
    },
    {
      "inputs": [],
      "name": "renounceOwnership",
      "outputs": [],
      "stateMutability": "nonpayable",
      "type": "function"
    },
    {
      "inputs": [
        {
          "internalType": "address",
          "name": "newOwner",
          "type": "address"
        }
      ],
      "name": "transferOwnership",
      "outputs": [],
      "stateMutability": "nonpayable",
      "type": "function"
    }
  ],
  "bytecode": "0x608060405234801561001057600080fd5b50604051611513380380611513833981810160405281019061003291906101e2565b80600073ffffffffffffffffffffffffffffffffffffffff168173ffffffffffffffffffffffffffffffffffffffff16036100a55760006040517f1e4fbdf700000000000000000000000000000000000000000000000000000000815260040161009c919061021e565b60405180910390fd5b6100b4816100bb60201b60201c565b5050610239565b60008060009054906101000a900473ffffffffffffffffffffffffffffffffffffffff169050816000806101000a81548173ffffffffffffffffffffffffffffffffffffffff021916908373ffffffffffffffffffffffffffffffffffffffff1602179055508173ffffffffffffffffffffffffffffffffffffffff168173ffffffffffffffffffffffffffffffffffffffff167f8be0079c531659141344cd1fd0a4f28419497f9722a3daafe3b4186f6b6457e060405160405180910390a35050565b600080fd5b600073ffffffffffffffffffffffffffffffffffffffff82169050919050565b60006101af82610184565b9050919050565b6101bf816101a4565b81146101ca57600080fd5b50565b6000815190506101dc816101b6565b92915050565b6000602082840312156101f8576101f761017f565b5b6000610206848285016101cd565b91505092915050565b610218816101a4565b82525050565b6000602082019050610233600083018461020f565b92915050565b6112cb806102486000396000f3fe608060405234801561001057600080fd5b506004361061007d5760003560e01c8063861d7daf1161005b578063861d7daf146100db5780638da5cb5b146100f7578063a6eecd1814610115578063f2fde38b146101315761007d565b80631149833414610082578063715018a6146100a057806384856482146100aa575b600080fd5b61008a61014d565b60405161009791906109dc565b60405180910390f35b6100a86102d0565b005b6100c460048036038101906100bf9190610a48565b6102e4565b6040516100d2929190610abf565b60405180910390f35b6100f560048036038101906100f09190610a48565b610428565b005b6100ff61056d565b60405161010c9190610b37565b60405180910390f35b61012f600480360381019061012a9190610c87565b610596565b005b61014b60048036038101906101469190610d2b565b610610565b005b60606001805480602002602001604051908101604052809291908181526020016000905b828210156102c757838290600052602060002090600202016040518060400160405290816000820180546101a490610d87565b80601f01602080910402602001604051908101604052809291908181526020018280546101d090610d87565b801561021d5780601f106101f25761010080835404028352916020019161021d565b820191906000526020600020905b81548152906001019060200180831161020057829003601f168201915b5050505050815260200160018201805461023690610d87565b80601f016020809104026020016040519081016040528092919081815260200182805461026290610d87565b80156102af5780601f10610284576101008083540402835291602001916102af565b820191906000526020600020905b81548152906001019060200180831161029257829003601f168201915b50505050508152505081526020019060010190610171565b50505050905090565b6102d8610696565b6102e2600061071d565b565b600181815481106102f457600080fd5b906000526020600020906002020160009150905080600001805461031790610d87565b80601f016020809104026020016040519081016040528092919081815260200182805461034390610d87565b80156103905780601f1061036557610100808354040283529160200191610390565b820191906000526020600020905b81548152906001019060200180831161037357829003601f168201915b5050505050908060010180546103a590610d87565b80601f01602080910402602001604051908101604052809291908181526020018280546103d190610d87565b801561041e5780601f106103f35761010080835404028352916020019161041e565b820191906000526020600020905b81548152906001019060200180831161040157829003601f168201915b5050505050905082565b610430610696565b6001805490508110610477576040517f08c379a000000000000000000000000000000000000000000000000000000000815260040161046e90610e04565b60405180910390fd5b60008190505b6001808054905061048e9190610e53565b81101561051e57600180826104a39190610e87565b815481106104b4576104b3610ebb565b5b9060005260206000209060020201600182815481106104d6576104d5610ebb565b5b9060005260206000209060020201600082018160000190816104f891906110ac565b506001820181600101908161050d91906110ac565b50905050808060010191505061047d565b50600180548061053157610530611194565b5b60019003818190600052602060002090600202016000808201600061055691906107e9565b60018201600061056691906107e9565b5050905550565b60008060009054906101000a900473ffffffffffffffffffffffffffffffffffffffff16905090565b61059e610696565b6001604051806040016040528084815260200183815250908060018154018082558091505060019003906000526020600020906002020160009091909190915060008201518160000190816105f391906111c3565b50602082015181600101908161060991906111c3565b5050505050565b610618610696565b600073ffffffffffffffffffffffffffffffffffffffff168173ffffffffffffffffffffffffffffffffffffffff160361068a5760006040517f1e4fbdf70000000000000000000000000000000000000000000000000000000081526004016106819190610b37565b60405180910390fd5b6106938161071d565b50565b61069e6107e1565b73ffffffffffffffffffffffffffffffffffffffff166106bc61056d565b73ffffffffffffffffffffffffffffffffffffffff161461071b576106df6107e1565b6040517f118cdaa70000000000000000000000000000000000000000000000000000000081526004016107129190610b37565b60405180910390fd5b565b60008060009054906101000a900473ffffffffffffffffffffffffffffffffffffffff169050816000806101000a81548173ffffffffffffffffffffffffffffffffffffffff021916908373ffffffffffffffffffffffffffffffffffffffff1602179055508173ffffffffffffffffffffffffffffffffffffffff168173ffffffffffffffffffffffffffffffffffffffff167f8be0079c531659141344cd1fd0a4f28419497f9722a3daafe3b4186f6b6457e060405160405180910390a35050565b600033905090565b5080546107f590610d87565b6000825580601f106108075750610826565b601f0160209004906000526020600020908101906108259190610829565b5b50565b5b8082111561084257600081600090555060010161082a565b5090565b600081519050919050565b600082825260208201905092915050565b6000819050602082019050919050565b600081519050919050565b600082825260208201905092915050565b60005b838110156108ac578082015181840152602081019050610891565b60008484015250505050565b6000601f19601f8301169050919050565b60006108d482610872565b6108de818561087d565b93506108ee81856020860161088e565b6108f7816108b8565b840191505092915050565b6000604083016000830151848203600086015261091f82826108c9565b9150506020830151848203602086015261093982826108c9565b9150508091505092915050565b60006109528383610902565b905092915050565b6000602082019050919050565b600061097282610846565b61097c8185610851565b93508360208202850161098e85610862565b8060005b858110156109ca57848403895281516109ab8582610946565b94506109b68361095a565b925060208a01995050600181019050610992565b50829750879550505050505092915050565b600060208201905081810360008301526109f68184610967565b905092915050565b6000604051905090565b600080fd5b600080fd5b6000819050919050565b610a2581610a12565b8114610a3057600080fd5b50565b600081359050610a4281610a1c565b92915050565b600060208284031215610a5e57610a5d610a08565b5b6000610a6c84828501610a33565b91505092915050565b600082825260208201905092915050565b6000610a9182610872565b610a9b8185610a75565b9350610aab81856020860161088e565b610ab4816108b8565b840191505092915050565b60006040820190508181036000830152610ad98185610a86565b90508181036020830152610aed8184610a86565b90509392505050565b600073ffffffffffffffffffffffffffffffffffffffff82169050919050565b6000610b2182610af6565b9050919050565b610b3181610b16565b82525050565b6000602082019050610b4c6000830184610b28565b92915050565b600080fd5b600080fd5b7f4e487b7100000000000000000000000000000000000000000000000000000000600052604160045260246000fd5b610b94826108b8565b810181811067ffffffffffffffff82111715610bb357610bb2610b5c565b5b80604052505050565b6000610bc66109fe565b9050610bd28282610b8b565b919050565b600067ffffffffffffffff821115610bf257610bf1610b5c565b5b610bfb826108b8565b9050602081019050919050565b82818337600083830152505050565b6000610c2a610c2584610bd7565b610bbc565b905082815260208101848484011115610c4657610c45610b57565b5b610c51848285610c08565b509392505050565b600082601f830112610c6e57610c6d610b52565b5b8135610c7e848260208601610c17565b91505092915050565b60008060408385031215610c9e57610c9d610a08565b5b600083013567ffffffffffffffff811115610cbc57610cbb610a0d565b5b610cc885828601610c59565b925050602083013567ffffffffffffffff811115610ce957610ce8610a0d565b5b610cf585828601610c59565b9150509250929050565b610d0881610b16565b8114610d1357600080fd5b50565b600081359050610d2581610cff565b92915050565b600060208284031215610d4157610d40610a08565b5b6000610d4f84828501610d16565b91505092915050565b7f4e487b7100000000000000000000000000000000000000000000000000000000600052602260045260246000fd5b60006002820490506001821680610d9f57607f821691505b602082108103610db257610db1610d58565b5b50919050565b7f496e646578206f7574206f6620626f756e647300000000000000000000000000600082015250565b6000610dee601383610a75565b9150610df982610db8565b602082019050919050565b60006020820190508181036000830152610e1d81610de1565b9050919050565b7f4e487b7100000000000000000000000000000000000000000000000000000000600052601160045260246000fd5b6000610e5e82610a12565b9150610e6983610a12565b9250828203905081811115610e8157610e80610e24565b5b92915050565b6000610e9282610a12565b9150610e9d83610a12565b9250828201905080821115610eb557610eb4610e24565b5b92915050565b7f4e487b7100000000000000000000000000000000000000000000000000000000600052603260045260246000fd5b600081549050610ef981610d87565b9050919050565b60008190508160005260206000209050919050565b60006020601f8301049050919050565b600082821b905092915050565b600060088302610f627fffffffffffffffffffffffffffffffffffffffffffffffffffffffffffffffff82610f25565b610f6c8683610f25565b95508019841693508086168417925050509392505050565b6000819050919050565b6000610fa9610fa4610f9f84610a12565b610f84565b610a12565b9050919050565b6000819050919050565b610fc383610f8e565b610fd7610fcf82610fb0565b848454610f32565b825550505050565b600090565b610fec610fdf565b610ff7818484610fba565b505050565b5b8181101561101b57611010600082610fe4565b600181019050610ffd565b5050565b601f8211156110605761103181610f00565b61103a84610f15565b81016020851015611049578190505b61105d61105585610f15565b830182610ffc565b50505b505050565b600082821c905092915050565b600061108360001984600802611065565b1980831691505092915050565b600061109c8383611072565b9150826002028217905092915050565b8181036110ba575050611192565b6110c382610eea565b67ffffffffffffffff8111156110dc576110db610b5c565b5b6110e68254610d87565b6110f182828561101f565b6000601f831160018114611120576000841561110e578287015490505b6111188582611090565b86555061118b565b601f19841661112e87610f00565b965061113986610f00565b60005b828110156111615784890154825560018201915060018501945060208101905061113c565b8683101561117e578489015461117a601f891682611072565b8355505b6001600288020188555050505b5050505050505b565b7f4e487b7100000000000000000000000000000000000000000000000000000000600052603160045260246000fd5b6111cc82610872565b67ffffffffffffffff8111156111e5576111e4610b5c565b5b6111ef8254610d87565b6111fa82828561101f565b600060209050601f83116001811461122d576000841561121b578287015190505b6112258582611090565b86555061128d565b601f19841661123b86610f00565b60005b828110156112635784890151825560018201915060208501945060208101905061123e565b86831015611280578489015161127c601f891682611072565b8355505b6001600288020188555050505b50505050505056fea2646970667358221220db6ad8f55b742a130f2e17ea0d34ffbe6f1c01a72951464b02b3154e015e3e4264736f6c634300081c0033",
  "linkReferences": {},
  "deployedLinkReferences": {}
}