{
  "_format": "hh-sol-artifact-1",
  "contractName": "PersonalImageGallery",
  "sourceName": "contracts/PersonalImageGallery.sol",
  "abi": [
    {
      "inputs": [
        {
          "internalType": "address",
          "name": "_owner",
          "type": "address"
        }
      ],
      "stateMutability": "nonpayable",
      "type": "constructor"
    },
    {
      "inputs": [
        {
          "internalType": "uint256",
          "name": "index",
          "type": "uint256"
        },
        {
          "internalType": "uint256",
          "name": "length",
          "type": "uint256"
        }
      ],
      "name": "ImageIndexOutOfBounds",
      "type": "error"
    },
    {
      "inputs": [
        {
          "internalType": "address",
          "name": "owner",
          "type": "address"
        }
      ],
      "name": "OwnableInvalidOwner",
      "type": "error"
    },
    {
      "inputs": [
        {
          "internalType": "address",
          "name": "account",
          "type": "address"
        }
      ],
      "name": "OwnableUnauthorizedAccount",
      "type": "error"
    },
    {
      "anonymous": false,
      "inputs": [
        {
          "indexed": true,
          "internalType": "address",
          "name": "previousOwner",
          "type": "address"
        },
        {
          "indexed": true,
          "internalType": "address",
          "name": "newOwner",
          "type": "address"
        }
      ],
      "name": "OwnershipTransferred",
      "type": "event"
    },
    {
      "inputs": [
        {
          "internalType": "string",
          "name": "_description",
          "type": "string"
        },
        {
          "internalType": "string",
          "name": "_base64EncodedImage",
          "type": "string"
        }
      ],
      "name": "addImage",
      "outputs": [],
      "stateMutability": "nonpayable",
      "type": "function"
    },
    {
      "inputs": [
        {
          "internalType": "uint256",
          "name": "index",
          "type": "uint256"
        }
      ],
      "name": "deleteImage",
      "outputs": [],
      "stateMutability": "nonpayable",
      "type": "function"
    },
    {
      "inputs": [
        {
          "internalType": "uint256",
          "name": "index",
          "type": "uint256"
        }
      ],
      "name": "getImage",
      "outputs": [
        {
          "components": [
            {
              "internalType": "string",
              "name": "description",
              "type": "string"
            },
            {
              "internalType": "string",
              "name": "base64EncodedImage",
              "type": "string"
            }
          ],
          "internalType": "struct PersonalImageGallery.Image",
          "name": "",
          "type": "tuple"
        }
      ],
      "stateMutability": "view",
      "type": "function"
    },
    {
      "inputs": [],
      "name": "getImageCount",
      "outputs": [
        {
          "internalType": "uint256",
          "name": "",
          "type": "uint256"
        }
      ],
      "stateMutability": "view",
      "type": "function"
    },
    {
      "inputs": [],
      "name": "getImages",
      "outputs": [
        {
          "components": [
            {
              "internalType": "string",
              "name": "description",
              "type": "string"
            },
            {
              "internalType": "string",
              "name": "base64EncodedImage",
              "type": "string"
            }
          ],
          "internalType": "struct PersonalImageGallery.Image[]",
          "name": "",
          "type": "tuple[]"
        }
      ],
      "stateMutability": "view",
      "type": "function"
    },
    {
      "inputs": [
        {
          "internalType": "uint256",
          "name": "",
          "type": "uint256"
        }
      ],
      "name": "images",
      "outputs": [
        {
          "internalType": "string",
          "name": "description",
          "type": "string"
        },
        {
          "internalType": "string",
          "name": "base64EncodedImage",
          "type": "string"
        }
      ],
      "stateMutability": "view",
      "type": "function"
    },
    {
      "inputs": [],
      "name": "owner",
      "outputs": [
        {
          "internalType": "address",
          "name": "",
          "type": "address"
        }
      ],
      "stateMutability": "view",
      "type": "function"
    },
    {
      "inputs": [],
      "name": "renounceOwnership",
      "outputs": [],
      "stateMutability": "nonpayable",
      "type": "function"
    },
    {
      "inputs": [
        {
          "internalType": "address",
          "name": "newOwner",
          "type": "address"
        }
      ],
      "name": "transferOwnership",
      "outputs": [],
      "stateMutability": "nonpayable",
      "type": "function"
    }
  ],
  "bytecode": "0x608060405234801561001057600080fd5b506040516117a43803806117a4833981810160405281019061003291906101e2565b80600073ffffffffffffffffffffffffffffffffffffffff168173ffffffffffffffffffffffffffffffffffffffff16036100a55760006040517f1e4fbdf700000000000000000000000000000000000000000000000000000000815260040161009c919061021e565b60405180910390fd5b6100b4816100bb60201b60201c565b5050610239565b60008060009054906101000a900473ffffffffffffffffffffffffffffffffffffffff169050816000806101000a81548173ffffffffffffffffffffffffffffffffffffffff021916908373ffffffffffffffffffffffffffffffffffffffff1602179055508173ffffffffffffffffffffffffffffffffffffffff168173ffffffffffffffffffffffffffffffffffffffff167f8be0079c531659141344cd1fd0a4f28419497f9722a3daafe3b4186f6b6457e060405160405180910390a35050565b600080fd5b600073ffffffffffffffffffffffffffffffffffffffff82169050919050565b60006101af82610184565b9050919050565b6101bf816101a4565b81146101ca57600080fd5b50565b6000815190506101dc816101b6565b92915050565b6000602082840312156101f8576101f761017f565b5b6000610206848285016101cd565b91505092915050565b610218816101a4565b82525050565b6000602082019050610233600083018461020f565b92915050565b61155c806102486000396000f3fe608060405234801561001057600080fd5b50600436106100935760003560e01c8063861d7daf11610066578063861d7daf146101215780638da5cb5b1461013d578063a6eecd181461015b578063f2fde38b14610177578063f97c44a91461019357610093565b806311498334146100985780632607aafa146100b6578063715018a6146100e657806384856482146100f0575b600080fd5b6100a06101b1565b6040516100ad9190610c20565b60405180910390f35b6100d060048036038101906100cb9190610c8c565b610334565b6040516100dd9190610cfd565b60405180910390f35b6100ee6104e4565b005b61010a60048036038101906101059190610c8c565b6104f8565b604051610118929190610d69565b60405180910390f35b61013b60048036038101906101369190610c8c565b61063c565b005b61014561078a565b6040516101529190610de1565b60405180910390f35b61017560048036038101906101709190610f31565b6107b3565b005b610191600480360381019061018c9190610fd5565b61082d565b005b61019b6108b3565b6040516101a89190611011565b60405180910390f35b60606001805480602002602001604051908101604052809291908181526020016000905b8282101561032b57838290600052602060002090600202016040518060400160405290816000820180546102089061105b565b80601f01602080910402602001604051908101604052809291908181526020018280546102349061105b565b80156102815780601f1061025657610100808354040283529160200191610281565b820191906000526020600020905b81548152906001019060200180831161026457829003601f168201915b5050505050815260200160018201805461029a9061105b565b80601f01602080910402602001604051908101604052809291908181526020018280546102c69061105b565b80156103135780601f106102e857610100808354040283529160200191610313565b820191906000526020600020905b8154815290600101906020018083116102f657829003601f168201915b505050505081525050815260200190600101906101d5565b50505050905090565b61033c610a13565b600180549050821061038c57816001805490506040517f1cc6e63100000000000000000000000000000000000000000000000000000000815260040161038392919061108c565b60405180910390fd5b600182815481106103a05761039f6110b5565b5b90600052602060002090600202016040518060400160405290816000820180546103c99061105b565b80601f01602080910402602001604051908101604052809291908181526020018280546103f59061105b565b80156104425780601f1061041757610100808354040283529160200191610442565b820191906000526020600020905b81548152906001019060200180831161042557829003601f168201915b5050505050815260200160018201805461045b9061105b565b80601f01602080910402602001604051908101604052809291908181526020018280546104879061105b565b80156104d45780601f106104a9576101008083540402835291602001916104d4565b820191906000526020600020905b8154815290600101906020018083116104b757829003601f168201915b5050505050815250509050919050565b6104ec6108c0565b6104f66000610947565b565b6001818154811061050857600080fd5b906000526020600020906002020160009150905080600001805461052b9061105b565b80601f01602080910402602001604051908101604052809291908181526020018280546105579061105b565b80156105a45780601f10610579576101008083540402835291602001916105a4565b820191906000526020600020905b81548152906001019060200180831161058757829003601f168201915b5050505050908060010180546105b99061105b565b80601f01602080910402602001604051908101604052809291908181526020018280546105e59061105b565b80156106325780601f1061060757610100808354040283529160200191610632565b820191906000526020600020905b81548152906001019060200180831161061557829003601f168201915b5050505050905082565b6106446108c0565b600180549050811061069457806001805490506040517f1cc6e63100000000000000000000000000000000000000000000000000000000815260040161068b92919061108c565b60405180910390fd5b60008190505b600180805490506106ab9190611113565b81101561073b57600180826106c09190611147565b815481106106d1576106d06110b5565b5b9060005260206000209060020201600182815481106106f3576106f26110b5565b5b906000526020600020906002020160008201816000019081610715919061133d565b506001820181600101908161072a919061133d565b50905050808060010191505061069a565b50600180548061074e5761074d611425565b5b6001900381819060005260206000209060020201600080820160006107739190610a2d565b6001820160006107839190610a2d565b5050905550565b60008060009054906101000a900473ffffffffffffffffffffffffffffffffffffffff16905090565b6107bb6108c0565b6001604051806040016040528084815260200183815250908060018154018082558091505060019003906000526020600020906002020160009091909190915060008201518160000190816108109190611454565b5060208201518160010190816108269190611454565b5050505050565b6108356108c0565b600073ffffffffffffffffffffffffffffffffffffffff168173ffffffffffffffffffffffffffffffffffffffff16036108a75760006040517f1e4fbdf700000000000000000000000000000000000000000000000000000000815260040161089e9190610de1565b60405180910390fd5b6108b081610947565b50565b6000600180549050905090565b6108c8610a0b565b73ffffffffffffffffffffffffffffffffffffffff166108e661078a565b73ffffffffffffffffffffffffffffffffffffffff161461094557610909610a0b565b6040517f118cdaa700000000000000000000000000000000000000000000000000000000815260040161093c9190610de1565b60405180910390fd5b565b60008060009054906101000a900473ffffffffffffffffffffffffffffffffffffffff169050816000806101000a81548173ffffffffffffffffffffffffffffffffffffffff021916908373ffffffffffffffffffffffffffffffffffffffff1602179055508173ffffffffffffffffffffffffffffffffffffffff168173ffffffffffffffffffffffffffffffffffffffff167f8be0079c531659141344cd1fd0a4f28419497f9722a3daafe3b4186f6b6457e060405160405180910390a35050565b600033905090565b604051806040016040528060608152602001606081525090565b508054610a399061105b565b6000825580601f10610a4b5750610a6a565b601f016020900490600052602060002090810190610a699190610a6d565b5b50565b5b80821115610a86576000816000905550600101610a6e565b5090565b600081519050919050565b600082825260208201905092915050565b6000819050602082019050919050565b600081519050919050565b600082825260208201905092915050565b60005b83811015610af0578082015181840152602081019050610ad5565b60008484015250505050565b6000601f19601f8301169050919050565b6000610b1882610ab6565b610b228185610ac1565b9350610b32818560208601610ad2565b610b3b81610afc565b840191505092915050565b60006040830160008301518482036000860152610b638282610b0d565b91505060208301518482036020860152610b7d8282610b0d565b9150508091505092915050565b6000610b968383610b46565b905092915050565b6000602082019050919050565b6000610bb682610a8a565b610bc08185610a95565b935083602082028501610bd285610aa6565b8060005b85811015610c0e5784840389528151610bef8582610b8a565b9450610bfa83610b9e565b925060208a01995050600181019050610bd6565b50829750879550505050505092915050565b60006020820190508181036000830152610c3a8184610bab565b905092915050565b6000604051905090565b600080fd5b600080fd5b6000819050919050565b610c6981610c56565b8114610c7457600080fd5b50565b600081359050610c8681610c60565b92915050565b600060208284031215610ca257610ca1610c4c565b5b6000610cb084828501610c77565b91505092915050565b60006040830160008301518482036000860152610cd68282610b0d565b91505060208301518482036020860152610cf08282610b0d565b9150508091505092915050565b60006020820190508181036000830152610d178184610cb9565b905092915050565b600082825260208201905092915050565b6000610d3b82610ab6565b610d458185610d1f565b9350610d55818560208601610ad2565b610d5e81610afc565b840191505092915050565b60006040820190508181036000830152610d838185610d30565b90508181036020830152610d978184610d30565b90509392505050565b600073ffffffffffffffffffffffffffffffffffffffff82169050919050565b6000610dcb82610da0565b9050919050565b610ddb81610dc0565b82525050565b6000602082019050610df66000830184610dd2565b92915050565b600080fd5b600080fd5b7f4e487b7100000000000000000000000000000000000000000000000000000000600052604160045260246000fd5b610e3e82610afc565b810181811067ffffffffffffffff82111715610e5d57610e5c610e06565b5b80604052505050565b6000610e70610c42565b9050610e7c8282610e35565b919050565b600067ffffffffffffffff821115610e9c57610e9b610e06565b5b610ea582610afc565b9050602081019050919050565b82818337600083830152505050565b6000610ed4610ecf84610e81565b610e66565b905082815260208101848484011115610ef057610eef610e01565b5b610efb848285610eb2565b509392505050565b600082601f830112610f1857610f17610dfc565b5b8135610f28848260208601610ec1565b91505092915050565b60008060408385031215610f4857610f47610c4c565b5b600083013567ffffffffffffffff811115610f6657610f65610c51565b5b610f7285828601610f03565b925050602083013567ffffffffffffffff811115610f9357610f92610c51565b5b610f9f85828601610f03565b9150509250929050565b610fb281610dc0565b8114610fbd57600080fd5b50565b600081359050610fcf81610fa9565b92915050565b600060208284031215610feb57610fea610c4c565b5b6000610ff984828501610fc0565b91505092915050565b61100b81610c56565b82525050565b60006020820190506110266000830184611002565b92915050565b7f4e487b7100000000000000000000000000000000000000000000000000000000600052602260045260246000fd5b6000600282049050600182168061107357607f821691505b6020821081036110865761108561102c565b5b50919050565b60006040820190506110a16000830185611002565b6110ae6020830184611002565b9392505050565b7f4e487b7100000000000000000000000000000000000000000000000000000000600052603260045260246000fd5b7f4e487b7100000000000000000000000000000000000000000000000000000000600052601160045260246000fd5b600061111e82610c56565b915061112983610c56565b9250828203905081811115611141576111406110e4565b5b92915050565b600061115282610c56565b915061115d83610c56565b9250828201905080821115611175576111746110e4565b5b92915050565b60008154905061118a8161105b565b9050919050565b60008190508160005260206000209050919050565b60006020601f8301049050919050565b600082821b905092915050565b6000600883026111f37fffffffffffffffffffffffffffffffffffffffffffffffffffffffffffffffff826111b6565b6111fd86836111b6565b95508019841693508086168417925050509392505050565b6000819050919050565b600061123a61123561123084610c56565b611215565b610c56565b9050919050565b6000819050919050565b6112548361121f565b61126861126082611241565b8484546111c3565b825550505050565b600090565b61127d611270565b61128881848461124b565b505050565b5b818110156112ac576112a1600082611275565b60018101905061128e565b5050565b601f8211156112f1576112c281611191565b6112cb846111a6565b810160208510156112da578190505b6112ee6112e6856111a6565b83018261128d565b50505b505050565b600082821c905092915050565b6000611314600019846008026112f6565b1980831691505092915050565b600061132d8383611303565b9150826002028217905092915050565b81810361134b575050611423565b6113548261117b565b67ffffffffffffffff81111561136d5761136c610e06565b5b611377825461105b565b6113828282856112b0565b6000601f8311600181146113b1576000841561139f578287015490505b6113a98582611321565b86555061141c565b601f1984166113bf87611191565b96506113ca86611191565b60005b828110156113f2578489015482556001820191506001850194506020810190506113cd565b8683101561140f578489015461140b601f891682611303565b8355505b6001600288020188555050505b5050505050505b565b7f4e487b7100000000000000000000000000000000000000000000000000000000600052603160045260246000fd5b61145d82610ab6565b67ffffffffffffffff81111561147657611475610e06565b5b611480825461105b565b61148b8282856112b0565b600060209050601f8311600181146114be57600084156114ac578287015190505b6114b68582611321565b86555061151e565b601f1984166114cc86611191565b60005b828110156114f4578489015182556001820191506020850194506020810190506114cf565b86831015611511578489015161150d601f891682611303565b8355505b6001600288020188555050505b50505050505056fea2646970667358221220d981dc8adfb67db502d2d402054a4eb0ab85abb42f86e3a1be17312fc7baa9f064736f6c634300081c0033",
  "linkReferences": {},
  "deployedLinkReferences": {}
}